:100000000C94BA000C9493040C94D7000C94D70071
:100010000C94D7000C94D7000C94D7000C94A9042E
:100020000C94D7000C94D7000C94D7000C94D700F4
:100030000C94D7000C94D7000C94D7000C94D700E4
:100040000C94D7000C94D7000C94D7000C94D700D4
:100050000C94D7006E616E00696E6600A500AA0060
:10006000AF00B500D400B400940074005401340112
:100070001401F400EAC03648C2A2A0480E4716494F
:100080009C3B6A498AA60849F05AEE48B8EBF24808
:10009000BD5F5648D0C5364853AC924847B926494B
:1000A000143BC249E7A1AB49CEC9FB48BD875448C0
:1000B000E6F6B747C3D77B4875FF8B48C0C72C49C6
:1000C000B9D68749EC8941498D7535487368084828
:1000D000A6F7D347937CF3474E3581480523C048A4
:1000E0005DB5A149859BB6499A0F584936DB4F4803
:1000F000ED0EA747CDCCB5429A19CE42CDCCF542F4
:10010000CD4CF042CDCCBD4233B392429A99644279
:1001100066667A42CDCCF14233F31143CDCC27430E
:100120009A5966439A594A4366A613439A192F432C
:100130009A99FB420000E3426626174366A63C43B9
:1001400000C0774333334C439A59144300401A4359
:100150009AD9184333B3F142CD0C104366E6F84206
:1001600000C01F439AD91E430080E8420000B042FD
:1001700033B3C54211241FBECFE5D8E0DEBFCDBFEB
:1001800010E0A0E6B0E0E2E1F9E102C005900D92D6
:10019000A83BB107D9F721E0A8EBB0E001C01D9260
:1001A000A630B207E1F70E9458070C940A0C0C9491
:1001B0000000AFE0B0E0EFEDF0E00C940E0A7C013F
:1001C0003B015A01FC0116821782838181FF51C3D2
:1001D0009AE0292EF7012381F30123FD859123FF66
:1001E00081913F01811509F442C0853239F423FD24
:1001F000959123FF91913F01953239F4B70190E039
:100200000E94330B65015601E5CF30E010E0812CF0
:10021000912CF0E28F1608F03CC09B3279F160F42B
:10022000903271F1933291F19E3209F045C086FC13
:100230001EC0689486F806C09D3229F1903359F5A6
:10024000689480F8F30123FD959123FF91913F017C
:100250009111DFCF082D097F903709F481C208F092
:1002600077C2983509F47FC29F3609F483C2F7013B
:10027000868197812F96E2E10C942A0A689481F88E
:10028000689482F8DFCF689483F8DCCF689484F8B0
:10029000D9CF87FC1BC080ED890F8A3028F686FEF7
:1002A00005C0129D800D1124182FCCCF929C800D7B
:1002B0001124982E8F2AC6CF9C3619F4689487F89B
:1002C000C1CF9C3409F1983609F4BCCF3115F1F057
:1002D000892F8F7D8554833008F095C1650128E012
:1002E000C20ED11C8FE3898301E010E05E013FEF75
:1002F000A31AB30AE89487F883FC04C00915110512
:1003000008F4E8C1592CFEC131E09CCF8BEB890F7A
:10031000833090F4689484F8905E86FE16E04FE394
:100320008422953689F4689486F8212F183010F0CD
:1003300027E017E0412C14C08BE9890F833008F0C7
:1003400062C1E89484F8E9CF963699F5689487F805
:10035000812F1C3308F08BE344244394480E27E09C
:10036000F50161917191819191916F01042DAE011F
:100370004F5F5F4F0E94450A5C013980832D897071
:100380000DE2813029F082FA002705F981FC0BE2A9
:10039000F32DFC705F2EF11541F133FA332433F85D
:1003A00001116AC224E0512C921608F47CC283E049
:1003B00068C220E0111509F4BDCF1150B6CF8110ED
:1003C0008052B70190E00E94330B0F5F1F4FF8017E
:1003D00084918111F4CF511409F415CFB70180E253
:1003E00090E00E94330B5A94F6CF87FE2FC0842DE5
:1003F0008A0D34FE04C09A81913309F4815044245B
:100400004394181634F4482EF9E08F1710F088E062
:10041000482EC501B7FE02C080E090E001960111B0
:100420000196111531F0212F30E02F5F3F4F820FE1
:10043000931F8915910514F4592C581A882D897029
:10044000A1F551102BC00115C9F131C086FC23C0A4
:10045000E12FF0E01A151B043CF02CEFA2162FEF51
:10046000B20614F0689487F8CE010396E80FF91FDE
:1004700001C01150111519F082918033D1F387FE1C
:100480000AC044244394410EA116B10414F41A196D
:10049000C0CF10E0BECF85E090E0C1CFB70180E2D1
:1004A00090E00E94330B5A94CCCF011529F0B7018C
:1004B000802F90E00E94330B83FC02C051103FC09C
:1004C00087FE56C04501B7FE02C0812C912CCE019B
:1004D00001968A0D9B1DFC01E819F909EC87FD873F
:1004E0009501241931092E873F87012F10E01195BE
:1004F00001951109A814B9044CF18E859F858815C2
:10050000990524F5EC85FD858181F1E08F1A91082C
:1005100080169106ECF02C853D852F5F3F4F2C8790
:100520003D87B70190E00E94330B3FEF831698049C
:1005300009F7B7018EE290E00E94330BDBCFB701E1
:1005400080E390E00E94330B5A94B8CF80E3DDCF74
:10055000A814B90431F49A81953318F039F434FEB3
:1005600005C0B70190E00E94330B35CF81E3F9CF8E
:100570008A81813311F0E89434F8B70190E00E9449
:10058000330B111124C085E490E084FC02C085E6A1
:1005900090E0B7010E94330BA114B1041CF061F587
:1005A00034FE2AC0B194A194B1088DE2B70190E065
:1005B0000E94330B80E39AE0A916B104FCF4B70162
:1005C00090E00E94330BB701C501C096CCCFB701B4
:1005D0008EE290E00E94330B1E5F02E0802F0F5FDF
:1005E000FE013196E80FF11D8081B70190E00E9475
:1005F000330B0113F3CFC7CF8BE2D8CF8F5F4AE025
:10060000A41AB108D8CF9336B9F1933709F442C090
:10061000933509F44EC0943619F0993609F07EC02E
:10062000F50187FE73C061917191819191916F0184
:10063000082D0F7697FF03C00E94060A00682AE083
:1006400030E05E01FFEFAF1ABF0AA5010E94AC0BBC
:10065000B82EBA1806FF98C0802F8E7FB11608F00A
:1006600092C004FFE4C002FDD8C00E7E512E802F40
:10067000867809F494C0D6C06501E2E0CE0ED11CA4
:10068000F5018081898301E010E05E01FFEFAF1A80
:10069000BF0A30CEF501A190B1906F01612F70E0DB
:1006A00086FC02C06FEF7FEFC5010E94280B8C0112
:1006B00021CEF501A190B1906F01612F70E086FC11
:1006C00002C06FEF7FEFC5010E941D0B8C01689483
:1006D00087F812CEB70180E290E00E94330B9A9423
:1006E0000DCEF50187FC859187FE81915F01B701F1
:1006F00090E00E94330B81E0511001C080E0581A55
:10070000015011090115110561F765CE61917191D3
:100710006F01872F880F880B982F8ACF953709F0A4
:1007200099CD082D0F7E2AE030E0F50107FF25C0A6
:1007300061917191819191916F015E01FFEFAF1A0B
:10074000BF0AA5010E94AC0BB82EBA180F7782CF52
:10075000983709F08CCD84FC04C020E130E0E5CF6F
:1007600000610460FACF84FE02C0082D066020E11B
:1007700032E0DBCF28E030E0D8CF619171916F019A
:1007800080E090E0DACF082F5B2C04FF70CFFE01F1
:10079000EB0DF11D8081803309F042C0097E03FD1D
:1007A0000EC000FF50C01B2D591418F4190D151957
:1007B000592C892D8519951408F480E0580E591488
:1007C00008F043C09518592C04FF41C0B70180E3DD
:1007D00090E00E94330B02FF09C088E590E001FD24
:1007E00002C088E790E0B7010E94330BB116D0F148
:1007F0008E010F5F1F4FBA949E012E5F3F4F2B0D4E
:10080000311D5901F50182915F01B70190E00E940D
:10081000330BA016B106B1F7DECD512E082FB7CF9E
:1008200002FD02C05394BBCF53945394B8CF512EC2
:10083000082F1DCFB70180E290E00E94330BA394F4
:10084000A914C0F3B6CFA52CFBCF512CBDCF802F60
:10085000867861F280E201FD8BE207FD8DE2B7014F
:1008600090E0C2CFB70180E390E00E94330B1150BB
:10087000BDCF8FEF9FEFFECCF5E0512C9F1670F0AF
:1008800084E0592C581A83FC07C0B70180E290E03D
:100890000E94330B5A94C9F7011529F0B701802F34
:1008A00090E00E94330B04E510E0311002C008E52F
:1008B00010E084FA882484F88ACD5F9BFECF8CB147
:1008C00090E008955D9BFECF8CB980E090E00895A4
:1008D0009B01AC01220F331F441F551F220F331FF2
:1008E000441F551F220F331F441F551F220F331F54
:1008F000441F551F60E070EC88EA90E00E94E40914
:100900008FEF820F89B92150310941095109232FF5
:10091000342F452F552720BD8AB188618AB980B50B
:10092000866880BD08951F921FB61F9211248F9371
:100930009F939091050181E0911180E080930501E2
:1009400082B3805882BB9F918F911F901FBE1F90D2
:1009500018951F920F920FB60F9211242F933F9369
:100960004F935F936F937F938F939F93AF93BF93B7
:10097000EF93FF9380910501811589F4FF91EF9129
:10098000BF91AF919F918F917F916F915F914F91A7
:100990003F912F910F900FBE0F901F9018950E94BE
:1009A00017088F538093030181E080930201E6CF03
:1009B0008EB588608EBD8EB582608EBD8BEA90E06C
:1009C0009BBD8ABD89B7806189BF089587B3806B5D
:1009D00087BBBE9881E58DB91EB808958FB9779B06
:1009E000FECF8FB10895C4980895C49A08950E94C7
:1009F000F30481E00E94EE0480E40E94EE040E9471
:100A0000F5040895A3E0B0E0E8E0F5E00C941E0AD8
:100A10008A839B8369830E94F30482E00E94EE0430
:100A20008B810E94EE048A810E94EE0489810E94DB
:100A3000EE040E94F5042396E2E00C943A0AA2E048
:100A4000B0E0E5E2F5E00C941E0A89839A830E94E7
:100A5000F30483E00E94EE048A810E94EE048981FF
:100A60000E94EE048FEF0E94EE0489830E94F50439
:100A700089812296E2E00C943A0AA8E1B0E0E3E42E
:100A8000F5E00C940E0A8D879E876B8B7C8B8CE631
:100A900090E09A878987E4E6F0E0FC87EB878CE5B5
:100AA00090E09E838D8318861F821D8A1E8A9EE990
:100AB0009F87E9ECE88BFFE7F98B2FE72A8B8D8581
:100AC0009E8580969C838B8314C08F819885019628
:100AD00098878F83E985FA853296FA87E9878B852F
:100AE0009C8502969C878B87EF81F885349709F463
:100AF000B8C0E985FA8585919591EB85FC852590AF
:100B000035904D845E84EB89E983FC89FA83912CCE
:100B1000812C3401281A390A988F8F8BF201619148
:100B20007191819191912F01EF89F88D25913591E6
:100B3000459155910E941D08A62EB72EC82ED92E7C
:100B4000E981FA816191719181919191FA83E983AF
:100B5000EF89F88DE20DF31D259135914591559161
:100B60000E941D08E62EF72E082F192F2A2D3B2D47
:100B70004C2D5D2D6A2D7B2D8C2D9D2D0E9477098E
:100B8000B62EC72ED82EA92E2E2D3F2D402F512FF9
:100B90006E2D7F2D802F912F0E947709262F372FC2
:100BA000482F592F6B2D7C2D8D2D9A2D0E941E08BC
:100BB000262F372F482F592F692D782D872D962DC9
:100BC0000E941E08962E872E782E692E8F89988D6A
:100BD0000496988F8F8BEB81FC814E165F0609F08F
:100BE0009DCFED81FE81F081F983ED81FE81F18160
:100BF000FF8B8D819E8102969E838D83692D782D3A
:100C0000872D962D0E948F089F938F937F936F93CC
:100C10009F899F93E981EF9386E790E09F938F935D
:100C20000E94630B0FB6F894DEBF0FBECDBF7F8569
:100C3000688999898A89272F362F492F582F692D3E
:100C4000782D872D962D0E948A0881150CF03DCFB6
:100C50009F819D8BE885EE8B9F86888A798A6A8A38
:100C600034CF8D899E896896E2E10C942A0A8A988D
:100C70008F9A929A97988BB780648BBF85B7826062
:100C800085BF8AB780648ABF0895AEE0B0E0EBE428
:100C9000F6E00C940E0A262F372F4B875C87AC01A9
:100CA0005695479556954795569547955E834D833E
:100CB00029012B843C84C90180969A8789873886CC
:100CC0002F823C832B836A011A82198270C081159E
:100CD00079F074F020E030E040E85FE3672D782D94
:100CE000892D9A2D0E941E08762E872E982EA92EC9
:100CF0003D85632F330F770B880B990B0E94C70834
:100D0000262F372F482F592F0E947709262F372F4C
:100D1000482F592FEE856B2D702F812F9E2F0E940B
:100D20001E08B62E072F182F9E874FEFE41AF40ADD
:100D3000EC14FD0499F06D84C7010E941F058D8796
:100D400061142CF2A9F22D85211594F6C3CFB12C94
:100D500000E010E01E86712C4801A12C872D982DF3
:100D6000A92DBA2DEB81FC8181939193A193B1932D
:100D7000FC83EB838B2D902FA12FBE85EF81F8850F
:100D800081939193A193B193F887EF8329813A815D
:100D90004D815E81240F351F3A832983C40ED51EF1
:100DA0008B819C81E985FA858E179F0799F089814F
:100DB0009A810E941F058D87E981FA81EC15FD0556
:100DC00030F67F01B12C00E010E01E86712C480146
:100DD000A12CB1CF84E890E09F938F930E94630B86
:100DE0000F900F9009851A85F201808191812281EF
:100DF0003381F4E04F0E511C3F932F939F938F93B9
:100E00002AE830E03F932F930E94630B0F900F90DE
:100E10000F900F900F900F904016510629F780E920
:100E200090E09F938F930E94630B0B851C85005E5F
:100E30001F4F0F900F90F1018081918122813381AA
:100E4000F4E02F0E311C3F932F939F938F932AE84A
:100E500030E03F932F930E94630B0F900F900F9001
:100E60000F900F900F902016310629F78AE090E03E
:100E70000E94790B2E96E2E10C942A0A60E875E252
:100E800080E090E00E94680480E690E09093BB00D0
:100E90008093BA000E94E6040E94F7040E94D804DE
:100EA0000E9412080E9437060E94F5077894089560
:100EB0000E943E072FEF8FEA91E021508040904042
:100EC000E1F700C00000C1E00CC080910501811174
:100ED00004C080910401811117C080910201811129
:100EE0003CC080910501811581F38091040181113D
:100EF000ECCFC09304011092FF001092FE001092FC
:100F0000010110920001E9CF1092040187E990E0FD
:100F10000E94800B80910001909101014EEB50E006
:100F20006EED70E00E9445066EEB70E08EED90E095
:100F30000E943D05FC01EE0FFF1FE259FF4F80812B
:100F400091810E94800B2FEF8FE593E0215080402C
:100F50009040E1F700C00000C0CF109202018091E4
:100F6000000190910101803E9E420CF0BACF609149
:100F700003018091FE009091FF000E940205809184
:100F8000FE009091FF0001969093FF008093FE0079
:100F9000809100019091010101969093010180934D
:100FA00000019FCF95B39F70282F207F922B95BB78
:100FB000AA98A89A94E09A95F1F7A898E8E2F2E046
:100FC0003197F1F700C0000095B38295807F9F7044
:100FD000892B85BBA89AF4E0FA95F1F7A89889E9DE
:100FE00095E10197F1F700C008958FEF84BB8FEF73
:100FF00097ED0197F1F700C0000082E00E94D20750
:1010000088E20E94D2078CE00E94D20786E00E940C
:10101000D20781E00E94D20789E995E10197F1F7B3
:1010200000C0089580E687B986E886B90895369AA3
:101030003699FECF85B190E008955058BB27AA2776
:101040000E9435080C943D090E942F0938F00E9437
:10105000360920F039F49F3F19F426F40C942C093A
:101060000EF4E095E7FB0C942609E92F0E944E0947
:1010700058F3BA17620773078407950720F079F4CD
:10108000A6F50C9470090EF4E0950B2EBA2FA02D46
:101090000B01B90190010C01CA01A0011124FF2725
:1010A000591B99F0593F50F4503E68F11A16F04020
:1010B000A22F232F342F4427585FF3CF469537951F
:1010C0002795A795F0405395C9F77EF41F16BA0BE4
:1010D000620B730B840BBAF09150A1F0FF0FBB1F92
:1010E000661F771F881FC2F70EC0BA0F621F731FDB
:1010F000841F48F4879577956795B795F7959E3F38
:1011000008F0B0CF9395880F08F09927EE0F9795C8
:10111000879508950E94020908F481E008950E94CD
:1011200096086894B1110C94710908950E945609AB
:1011300088F09F5798F0B92F9927B751B0F0E1F098
:10114000660F771F881F991F1AF0BA95C9F714C048
:10115000B13091F00E947009B1E008950C947009CB
:10116000672F782F8827B85F39F0B93FCCF3869581
:1011700077956795B395D9F73EF4909580957095DE
:1011800061957F4F8F4F9F4F0895E89409C097FB5B
:101190003EF490958095709561957F4F8F4F9F4F4E
:1011A0009923A9F0F92F96E9BB279395F695879592
:1011B00077956795B795F111F8CFFAF4BB0F11F455
:1011C00060FF1BC06F5F7F4F8F4F9F4F16C08823FC
:1011D00011F096E911C0772321F09EE8872F762F32
:1011E00005C0662371F096E8862F70E060E02AF073
:1011F0009A95660F771F881FDAF7880F969587955F
:1012000097F90895990F0008550FAA0BE0E8FEEF33
:1012100016161706E807F907C0F012161306E407BA
:10122000F50798F0621B730B840B950B39F40A26B3
:1012300061F0232B242B252B21F408950A2609F491
:10124000A140A6958FEF811D811D089597F99F6795
:1012500080E870E060E008959FEF80EC089500243E
:101260000A941616170618060906089500240A940B
:1012700012161306140605060895092E0394000C91
:1012800011F4882352F0BB0F40F4BF2B11F460FF20
:1012900004C06F5F7F4F8F4F9F4F089557FD905849
:1012A000440F551F59F05F3F71F04795880F97FB2A
:1012B000991F61F09F3F79F08795089512161306E4
:1012C0001406551FF2CF4695F1DF08C01616170613
:1012D0001806991FF1CF8695710561050894089548
:1012E000E894BB2766277727CB0197F908950E94DA
:1012F0008A090C943D090E942F0938F00E94360992
:1013000020F0952311F00C9426090C942C0911243B
:101310000C9471090E944E0970F3959FC1F3950FCB
:1013200050E0551F629FF001729FBB27F00DB11D69
:10133000639FAA27F00DB11DAA1F649F6627B00DF9
:10134000A11D661F829F2227B00DA11D621F739FE2
:10135000B00DA11D621F839FA00D611D221F749FF0
:101360003327A00D611D231F849F600D211D822F37
:10137000762F6A2F11249F5750409AF0F1F088235E
:101380004AF0EE0FFF1FBB1F661F771F881F91508B
:101390005040A9F79E3F510580F00C9426090C940B
:1013A00071095F3FE4F3983ED4F38695779567958E
:1013B000B795F795E7959F5FC1F7FE2B880F911DB5
:1013C0009695879597F90895A1E21A2EAA1BBB1B43
:1013D000FD010DC0AA1FBB1FEE1FFF1FA217B30701
:1013E000E407F50720F0A21BB30BE40BF50B661F17
:1013F000771F881F991F1A9469F7609570958095DB
:1014000090959B01AC01BD01CF0108959095809509
:10141000709561957F4F8F4F9F4F08952F923F9208
:101420004F925F926F927F928F929F92AF92BF92F4
:10143000CF92DF92EF92FF920F931F93CF93DF93A0
:10144000CDB7DEB7CA1BDB0B0FB6F894DEBF0FBEFD
:10145000CDBF09942A88398848885F846E847D844A
:101460008C849B84AA84B984C884DF80EE80FD804C
:101470000C811B81AA81B981CE0FD11D0FB6F894C2
:10148000DEBF0FBECDBFED010895283008F027E084
:101490003327DA01990F311D87FD916000966105B0
:1014A000710539F432602E5F3D9330E32A95E1F700
:1014B00008959F3F30F080387105610509F03C5F69
:1014C0003C5F3D93913008F08068911DDF93CF938E
:1014D0001F930F93FF92EF92192F987F9695E92F04
:1014E00096959695E90FFF27EE58F74E99273327E3
:1014F000EE24FF24A701E70105900894079428F43F
:10150000360FE71EF81E491F511D660F771F881FF3
:10151000991F0694A1F70590079428F4E70EF81E8A
:10152000491F561FC11D770F881F991F661F0694FC
:10153000A1F70590079428F4F80E491F561FC71FFE
:10154000D11D880F991F661F771F0694A1F705907C
:10155000079420F4490F561FC71FD81F990F661F05
:10156000771F881F0694A9F784911095177041F092
:10157000D695C79557954795F794E7941A95C1F76F
:10158000E8E1F8E168941590159135916591959190
:1015900005907FE27395E118F10A430B560BC90BD6
:1015A000D009C0F7E10CF11E431F561FC91FD01D03
:1015B0007EF4703311F48A95E6CFE894015030F050
:1015C000080F0AF40027021708F4202F2395022F92
:1015D0007A3328F079E37D932A95E9F710C07D935B
:1015E0002A9589F6069497956795379517951794D8
:1015F000E118F10A430B560BC90BD00998F023955B
:101600007E9173957A3308F070E37C932013B8F7DA
:101610007E9170617D9330F0839571E37D9370E3EB
:101620002A95E1F71124EF90FF900F911F91CF9130
:10163000DF91992787FD90950895FC0105906150F1
:1016400070400110D8F7809590958E0F9F1F0895D8
:10165000FC016150704001900110D8F78095909581
:101660008E0F9F1F08950F931F93CF93DF93182F13
:10167000092FEB018B8181FD09C00FEF1FEF812F37
:10168000902FDF91CF911F910F91089582FF14C089
:101690002E813F818C819D81281739073CF4E88198
:1016A000F981CF0101968883998310838E819F8170
:1016B00001968E839F83E3CFE885F985812F099575
:1016C000892BA1F3DACFA0E0B0E0E9E6FBE00C94CF
:1016D0001E0AAE014B5F5F4FFA0161917191AF013C
:1016E0008091BA009091BB000E94D900E2E00C9476
:1016F0003A0A6091BA007091BB000E94330B0895C2
:101700000F931F93CF93DF93E091BA00F091BB004A
:101710002381EC0100E010E021FD0EC00FEF1FEF70
:10172000C801DF91CF911F910F91089521960995DE
:10173000892B11F00FEF1FEF88816091BA00709133
:10174000BB00DB011896ED91FD918111EFCF8AE08E
:101750000995892B29F3E2CFFA01AA27283051F104
:10176000203181F1E8946F936E7F6E5F7F4F8F4FD2
:101770009F4FAF4FB1E03ED0B4E03CD0670F781F31
:10178000891F9A1FA11D680F791F8A1F911DA11D16
:101790006A0F711D811D911DA11D20D009F468944F
:1017A0003F912AE0269F11243019305D3193DEF6F7
:1017B000CF010895462F4770405D4193B3E00FD0AD
:1017C000C9F7F6CF462F4F70405D4A3318F0495D98
:1017D00031FD4052419302D0A9F7EACFB4E0A6957B
:1017E0009795879577956795BA95C9F7009761059D
:1017F000710508959B01AC010A2E069457954795F3
:1018000037952795BA95C9F7620F731F841F951FE7
:10181000A01D0895F894FFCF00407A10F35A00A05D
:10182000724E18090010A5D4E80000E876481700A9
:1018300000E40B54020000CA9A3B000000E1F505E9
:10184000000080969800000040420F000000A08633
:1018500001000000102700000000E8030000000065
:101860006400000000000A00000000000100000009
:1018700000002C76D888DC674F0823DFC1DFAE5923
:10188000E1B1B796E5E3E453C63AE651997696E8B6
:10189000E6C28426EB898C9B62ED407C6FFCEFBC3A
:1018A0009C9F40F2BAA56FA5F490055A2AF75C9365
:1018B0006B6CF9676DC11BFCE0E40D47FEF520E69B
:1018C000B500D0ED902E0300943577050080841E7E
:1018D000080000204E0A000000C80C333333330FD9
:1018E000986E12831141EF8D2114893BE65516CF76
:1018F000FEE6DB18D1844B381BF77C1D901DA4BB82
:10190000E424203284725E228100C9F124ECA1E536
:021910003D2771
:10191200000000030000000062045D040000A50056
:10192200AA00AF00B500257320646973743A2025BC
:101932006C640A005A43523A2000252E3266200077
:101942000A5354453A200050726F63657373696E8F
:10195200672E2E2E00646F776E006C6566740072BF
:081962006967687400757000EC
:00000001FF
