:100000000C9486010C945F050C94A3010C94A3013D
:100010000C94A3010C94A3010C94A3010C947505FA
:100020000C94A3010C94A3010C94A3010C94A301C0
:100030000C94A3010C94A3010C94A3010C94A301B0
:100040000C94A3010C94A3010C94A3010C94A301A0
:100050000C94A3016E616E00696E66000AD7A33D21
:1000600037FEA43DB072A83D5D32AE3D193AB63DB3
:100070001F84C03DAA0ACD3DDFC5DB3DC5ABEC3DCD
:1000800068B2FF3D99660A3E0AF8153EA985223EF0
:100090002008303E86763E3E32C84D3E73F35D3ECC
:1000A000CCED6E3E8256803EEA92893E5B26933EC0
:1000B000CC0A9D3E153AA73EC9ADB13E5B5FBC3E42
:1000C0003D48C73E5B61D23E05A4DD3EE608E93E01
:1000D0000989F43E9D0E003F11DF053F46B20B3FFC
:1000E0009084113F5452173FD7171D3F8DD1223FA7
:1000F000EE7B283F4D132E3F3194333F44FB383F76
:10010000FA443E3F1E6E433F7973483FD7514D3FFF
:100110002106523F868D563F15E55A3F0B0A5F3F39
:10012000FDF9623F4AB2663FA9306A3FEF726D3F08
:100130001477703F213B733F73BD753F65FC773F7C
:1001400098F6793FCEAA7B3FF8177D3F2E3D7E3F44
:10015000B5197F3F08AD7F3FC2F67F3FC2F67F3FB4
:1001600008AD7F3FB5197F3F2E3D7E3FF8177D3F9D
:10017000CEAA7B3F98F6793F65FC773F73BD753F0C
:10018000213B733F1477703FEF726D3FA9306A3F98
:100190004AB2663FFDF9623F0B0A5F3F15E55A3FE1
:1001A000868D563F2106523FD7514D3F7973483FC8
:1001B0001E6E433FFA443E3F44FB383F3194333F89
:1001C0004D132E3FEE7B283F8DD1223FD7171D3F89
:1001D0005452173F9084113F46B20B3F11DF053F49
:1001E0009D0E003F0989F43EE608E93E05A4DD3E88
:1001F0005B61D23E3D48C73E5B5FBC3EC9ADB13E90
:10020000153AA73ECC0A9D3E5B26933EEA92893E74
:100210008256803ECCED6E3E73F35D3E32C84D3E5D
:1002200086763E3E2008303EA985223E0AF8153EDD
:1002300099660A3E68B2FF3DC5ABEC3DDFC5DB3DCC
:10024000AA0ACD3D1F84C03D193AB63D5D32AE3D90
:10025000B072A83D37FEA43D0AD7A33DF802E402E0
:10026000D002BC02A802940280026C027200550007
:1002700090007F0058005D00650060006600131D5F
:100280006F005A00780081006A00680083007700E0
:1002900070009C1E78008800A800AF0099009E00A6
:1002A000B00091009800711E76009A00A0009E0098
:1002B000BC00B000B30091009D00B31D8F00A800EA
:1002C000CD00CE008F008E00A200A400A400BD1CB3
:1002D00077006C009500870072007800830055005D
:1002E0007100E91C75007200760071008900A7009A
:1002F0009C0061007900201E8D008A00AA00B600D3
:10030000890079007B006F008500C21B11241FBE8D
:10031000CFE5D8E0DEBFCDBF17E0A0E6B0E0E2EF6A
:10032000F3E202C005900D92AA33B107D9F728E095
:10033000AAE3B7E001C01D92A835B207E1F70E9419
:10034000A80A0C947A110C940000AFE0B0E0EBEA3C
:10035000F1E00C94760F7C013B015A01FC011682FE
:100360001782838181FF51C39AE0292EF7012381EF
:10037000F30123FD859123FF81913F01811509F44C
:1003800042C0853239F423FD959123FF91913F01BD
:10039000953239F4B70190E00E94AA106501560128
:1003A000E5CF30E010E0812C912CF0E28F1608F0C0
:1003B0003CC09B3279F160F4903271F1933291F14B
:1003C0009E3209F045C086FC1EC0689486F806C0BF
:1003D0009D3229F1903359F5689480F8F30123FD9B
:1003E000959123FF91913F019111DFCF082D097F56
:1003F000903709F481C208F077C2983509F47FC2BA
:100400009F3609F483C2F701868197812F96E2E136
:100410000C94920F689481F8689482F8DFCF689406
:1004200083F8DCCF689484F8D9CF87FC1BC080EDBB
:10043000890F8A3028F686FE05C0129D800D112492
:10044000182FCCCF929C800D1124982E8F2AC6CFC6
:100450009C3619F4689487F8C1CF9C3409F198361A
:1004600009F4BCCF3115F1F0892F8F7D855483308D
:1004700008F095C1650128E0C20ED11C8FE3898385
:1004800001E010E05E013FEFA31AB30AE89487F899
:1004900083FC04C00915110508F4E8C1592CFEC1FC
:1004A00031E09CCF8BEB890F833090F4689484F813
:1004B000905E86FE16E04FE38422953689F46894B8
:1004C00086F8212F183010F027E017E0412C14C0D7
:1004D0008BE9890F833008F062C1E89484F8E9CF92
:1004E000963699F5689487F8812F1C3308F08BE3D2
:1004F00044244394480E27E0F50161917191819164
:1005000091916F01042DAE014F5F5F4F0E94BC0FB0
:100510005C013980832D89700DE2813029F082FAE7
:10052000002705F981FC0BE2F32DFC705F2EF1151D
:1005300041F133FA332433F801116AC224E0512C1B
:10054000921608F47CC283E068C220E0111509F419
:10055000BDCF1150B6CF81108052B70190E00E94FC
:10056000AA100F5F1F4FF80184918111F4CF51142D
:1005700009F415CFB70180E290E00E94AA105A94C6
:10058000F6CF87FE2FC0842D8A0D34FE04C09A81D9
:10059000913309F4815044244394181634F4482EBE
:1005A000F9E08F1710F088E0482EC501B7FE02C0B1
:1005B00080E090E0019601110196111531F0212F94
:1005C00030E02F5F3F4F820F931F8915910514F480
:1005D000592C581A882D8970A1F551102BC001157E
:1005E000C9F131C086FC23C0E12FF0E01A151B04CD
:1005F0003CF02CEFA2162FEFB20614F0689487F8A7
:10060000CE010396E80FF91F01C01150111519F022
:1006100082918033D1F387FE0AC044244394410E73
:10062000A116B10414F41A19C0CF10E0BECF85E0B2
:1006300090E0C1CFB70180E290E00E94AA105A94E6
:10064000CCCF011529F0B701802F90E00E94AA10AD
:1006500083FC02C051103FC087FE56C04501B7FE63
:1006600002C0812C912CCE0101968A0D9B1DFC01AC
:10067000E819F909EC87FD879501241931092E87BE
:100680003F87012F10E0119501951109A814B904B5
:100690004CF18E859F858815990524F5EC85FD859F
:1006A0008181F1E08F1A910880169106ECF02C857B
:1006B0003D852F5F3F4F2C873D87B70190E00E941B
:1006C000AA103FEF8316980409F7B7018EE290E075
:1006D0000E94AA10DBCFB70180E390E00E94AA102D
:1006E0005A94B8CF80E3DDCFA814B90431F49A81CD
:1006F000953318F039F434FE05C0B70190E00E943C
:10070000AA1035CF81E3F9CF8A81813311F0E894C3
:1007100034F8B70190E00E94AA10111124C085E4BA
:1007200090E084FC02C085E690E0B7010E94AA1028
:10073000A114B1041CF061F534FE2AC0B194A19457
:10074000B1088DE2B70190E00E94AA1080E39AE020
:10075000A916B104FCF4B70190E00E94AA10B701F9
:10076000C501C096CCCFB7018EE290E00E94AA10DE
:100770001E5F02E0802F0F5FFE013196E80FF11D32
:100780008081B70190E00E94AA100113F3CFC7CF78
:100790008BE2D8CF8F5F4AE0A41AB108D8CF933646
:1007A000B9F1933709F442C0933509F44EC0943639
:1007B00019F0993609F07EC0F50187FE73C061918A
:1007C0007191819191916F01082D0F7697FF03C070
:1007D0000E94630F00682AE030E05E01FFEFAF1A6D
:1007E000BF0AA5010E941C11B82EBA1806FF98C0B6
:1007F000802F8E7FB11608F092C004FFE4C002FD86
:10080000D8C00E7E512E802F867809F494C0D6C0B1
:100810006501E2E0CE0ED11CF5018081898301E003
:1008200010E05E01FFEFAF1ABF0A30CEF501A190D4
:10083000B1906F01612F70E086FC02C06FEF7FEF17
:10084000C5010E949F108C0121CEF501A190B190AD
:100850006F01612F70E086FC02C06FEF7FEFC50172
:100860000E9494108C01689487F812CEB70180E240
:1008700090E00E94AA109A940DCEF50187FC859114
:1008800087FE81915F01B70190E00E94AA1081E08C
:10089000511001C080E0581A0150110901151105CD
:1008A00061F765CE619171916F01872F880F880B79
:1008B000982F8ACF953709F099CD082D0F7E2AE021
:1008C00030E0F50107FF25C061917191819191910F
:1008D0006F015E01FFEFAF1ABF0AA5010E941C1154
:1008E000B82EBA180F7782CF983709F08CCD84FCD8
:1008F00004C020E130E0E5CF00610460FACF84FE5F
:1009000002C0082D066020E132E0DBCF28E030E0B5
:10091000D8CF619171916F0180E090E0DACF082F1C
:100920005B2C04FF70CFFE01EB0DF11D8081803345
:1009300009F042C0097E03FD0EC000FF50C01B2D10
:10094000591418F4190D1519592C892D8519951458
:1009500008F480E0580E591408F043C09518592C3B
:1009600004FF41C0B70180E390E00E94AA1002FF9B
:1009700009C088E590E001FD02C088E790E0B7017A
:100980000E94AA10B116D0F18E010F5F1F4FBA94CA
:100990009E012E5F3F4F2B0D311D5901F5018291B4
:1009A0005F01B70190E00E94AA10A016B106B1F74E
:1009B000DECD512E082FB7CF02FD02C05394BBCF1E
:1009C00053945394B8CF512E082F1DCFB70180E216
:1009D00090E00E94AA10A394A914C0F3B6CFA52C4E
:1009E000FBCF512CBDCF802F867861F280E201FDD4
:1009F0008BE207FD8DE2B70190E0C2CFB70180E343
:100A000090E00E94AA101150BDCF8FEF9FEFFECC57
:100A1000F5E0512C9F1670F084E0592C581A83FC95
:100A200007C0B70180E290E00E94AA105A94C9F76B
:100A3000011529F0B701802F90E00E94AA1004E56B
:100A400010E0311002C008E510E084FA882484F830
:100A50008ACD5F9BFECF8CB190E008955D9BFECF69
:100A60008CB980E090E008959B01AC01220F331F08
:100A7000441F551F220F331F441F551F220F331FC2
:100A8000441F551F220F331F441F551F60E070EC99
:100A900088EA90E00E94410F8FEF820F89B92150C0
:100AA000310941095109232F342F452F552720BDE6
:100AB0008AB188618AB980B5866880BD08951F9221
:100AC0001FB61F9211248F939F939091570881E036
:100AD000911180E08093570882B3805882BB9F9128
:100AE0008F911F901FBE1F9018951F920F920FB6E7
:100AF0000F9211242F933F934F935F936F937F93A4
:100B00008F939F93AF93BF93EF93FF938091570879
:100B1000811589F4FF91EF91BF91AF919F918F91D2
:100B20007F916F915F914F913F912F910F900FBEE9
:100B30000F901F9018950E94060C805880935508BE
:100B400081E080935408E6CF8EB588608EBD8EB567
:100B500082608EBD8BEA90E09BBD8ABD89B78061C3
:100B600089BF089587B3806B87BBBE9881E58DB937
:100B70001EB808958FB9779BFECF8FB10895C498A2
:100B80000895C49A08950E94BF0581E00E94BA05A5
:100B900080E40E94BA050E94C1050895A3E0B0E078
:100BA000E4EDF5E00C94860F8A839B8369830E94B1
:100BB000BF0582E00E94BA058B810E94BA058A8136
:100BC0000E94BA0589810E94BA050E94C105239638
:100BD000E2E00C94A20FA2E0B0E0E1EFF5E00C94AB
:100BE000860F89839A830E94BF0583E00E94BA051D
:100BF0008A810E94BA0589810E94BA058FEF0E94FE
:100C0000BA0589830E94C10589812296E2E00C948D
:100C1000A20FA8E0B0E0EFE0F6E00C94760F282EEB
:100C2000392E0F2EFCE5AF2EF2E0BF2EF02DC12C99
:100C3000D12C1D821E828FEF9FEFDC0189839A8366
:100C4000AB83BC83710190E1E90EF11C8EEF9FEF45
:100C50004C01821893080BC09FEFC91AD90AA2E071
:100C6000AA0EB11CB8E0CB16D10409F43FC0F501BF
:100C70000591159138862F82412C512C3201080D97
:100C8000191DAF81B8856D917D91B887AF83FD0146
:100C9000E00FF11F2591359180E090E0621B730B0E
:100CA000810991099B01AC010E94310F672F782FB8
:100CB000892F992787FD9A95460E571E681E791E23
:100CC000EF81F885EE15FF05E1F689819A81AB8108
:100CD000BC81481659066A067B0608F0BDCFCD8256
:100CE000DE8249825A826B827C82B6CF8D819E8160
:100CF0002896E2E10C94920F8A988F9A929A97988C
:100D00008BB780648BBF85B7826085BF8AB78064EC
:100D10008ABF0895A4E0B0E0E0E9F6E00C94830F08
:100D200089839A83623080F1FF24FA94F60E8981D8
:100D30009A818F0D911D8F0D911D9C838B83EB816B
:100D4000FC810081118172916291FC83EB83072EFB
:100D5000000C880B990B0E94380E2CEE31E548E709
:100D60005FE30E949C0E0E94000E462F572F041B2B
:100D7000150BEB81FC8113830283FA94F110DFCF12
:100D8000E981FA81118210822496E5E00C949F0F8C
:100D9000CF93DF93ECE5F0E0A82FB92F6CE571E07D
:100DA00044912D913D91ED012297429FC001439FB7
:100DB000900D1124892F880F880B9883898334968E
:100DC000E617F70769F7DF91CF910895AEE5B0E038
:100DD000ECEEF6E00C94760F6C968FAF6C976D96F8
:100DE0009FAF6D976E966FAF6E976F967FAF6F9751
:100DF000FE01319680E2DF011D928A95E9F76D963A
:100E0000BFAD6D97BF936C96EFAD6C97EF938EE788
:100E100096E09F938F930E94DA100F900F900F909F
:100E20000F906D960EAD1FAD6D970034110508F44F
:100E30003EC369961FAE1EAE69976B961FAE1EAE7F
:100E40006B978E01075C1F4F1AAF09AF0F2EF0E4AE
:100E50002F2EF8E03F2EF02DF7C1AA27BB27A81BA5
:100E6000B90B6AC088279927821B930B69C02BADE9
:100E70003CAD4DAD5EAD2A0F3B1F411D511D2BAF4B
:100E80003CAF4DAF5EAFC11409F442C035C02F96E0
:100E90002CAD3DAD4EAD5FAD2F972A0F3B1F411DD1
:100EA000511D2F962CAF3DAF4EAF5FAF2F9724C093
:100EB0002B962CAD3DAD4EAD5FAD2B972A0F3B1F52
:100EC000411D511D2B962CAF3DAF4EAF5FAF2B9701
:100ED00013C0883108F054C027962CAD3DAD4EADFF
:100EE0005FAD27972A0F3B1F411D511D27962CAF41
:100EF0003DAF4EAF5FAF27978A0E9B1EA11CB11C62
:100F0000A70196010E946B0F460E571E681E791EA0
:100F10003FEFC31AD30AE30AF30A48E0003014078C
:100F200009F43FC0D8012D913D918D01819191919E
:100F3000DC0199230CF491CFC90199230CF492CFD1
:100F4000A80FB91F8C2D823008F491CF843008F49B
:100F50009ECF883008F4ACCF803108F0BACF23960A
:100F60002CAD3DAD4EAD5FAD23972A0F3B1F411D0C
:100F7000511D23962CAF3DAF4EAF5FAF2397BCCF33
:100F800063962CAD3DAD4EAD5FAD63972A0F3B1F11
:100F9000411D511D63962CAF3DAF4EAF5FAF6397C0
:100FA000ABCF63960CAD1DAD2EAD3FAD63970DABD2
:100FB0001EAB2FAB38AF27960CAD1DAD2EAD3FADA0
:100FC000279709AB1AAB2BAB3CAB23960CAD1DADF1
:100FD0002EAD3FAD23970DA71EA72FA738AB2B969D
:100FE0000CAD1DAD2EAD3FAD2B9709A71AA72BA7B2
:100FF0003CA72F960CAD1DAD2EAD3FAD2F970DA389
:101000001EA32FA338A70BAD1CAD2DAD3EAD09A37C
:101010001AA32BA33CA3D901C801B695A795979510
:10102000879549815A816B817C818C019D01040FD8
:10103000151F261F371F0BAF1CAF2DAF3EAF098307
:101040001A832B833C832F968CAD9DADAEADBFAD87
:101050002F97B695A795979587954D815E816F815E
:1010600078858C019D01040F151F261F371F2F96B1
:101070000CAF1DAF2EAF3FAF2F970D831E832F8375
:1010800038872B968CAD9DADAEADBFAD2B97B69589
:10109000A79597958795B695A7959795879549852F
:1010A0005A856B857C858C019D01040F151F261FB9
:1010B000371F2B960CAF1DAF2EAF3FAF2B97098775
:1010C0001A872B873C8723968CAD9DADAEADBFAD07
:1010D0002397689412F8B695A795979587951694D7
:1010E000D1F74D855E856F8578898C019D01040F50
:1010F000151F261F371F23960CAF1DAF2EAF3FAF16
:1011000023970D871E872F87388B27968CAD9DAD33
:10111000AEADBFAD2797689412F8B695A795979591
:1011200087951694D1F749895A896B897C898C01F6
:101130009D01040F151F261F371F27960CAF1DAFEB
:101140002EAF3FAF2797098B1A8B2B8B3C8B639667
:101150008CAD9DADAEADBFAD6397689412F8B695FA
:10116000A795979587951694D1F74D895E896F89D4
:10117000788D8C019D01040F151F261F371F639664
:101180000CAF1DAF2EAF3FAF63970D8B1E8B2F8B18
:10119000388F498D5A8D6B8D7C8DD501C401689433
:1011A00015F8B695A795979587951694D1F78C0164
:1011B0009D01040F151F261F371F67960CAF1DAF2B
:1011C0002EAF3FAF6797098F1A8F2B8F3C8FCD8C37
:1011D000DE8CEF8CF8A081149104A104B10451F0CD
:1011E000C301B201A50194010E94410F49015A01B6
:1011F000AA24BB24C80CD91CEA1CFB1CCD8EDE8E95
:10120000EF8EF8A26B960EAD1FAD6B970F5F1F4F61
:101210006B961FAF0EAF6B9769962EAD3FAD69977A
:10122000205E3F4F69968EAD9FAD6997805A9F4F64
:101230006D960EAD1FAD6D970817190708F48DC098
:1012400069963FAF2EAF6997FE01B1961192119248
:101250001192119209AD1AADE017F107B9F700EC40
:1012600017E020E437E065963FAF2EAF6597590150
:1012700068016996EEACFFAC6997C7010E94EB0567
:1012800030E48302C0011124D6018D939D936D013A
:10129000F501119211925F01FFEFEF1AFF0AA215FB
:1012A000B30559F760E480EC97E00E948A0680EC71
:1012B00097E00E94C80620E030E046E050E060E49D
:1012C00077E080EC97E00E940C0C2DA93EA94FA975
:1012D00058AD63962CAF3DAF4EAF5FAF639789A912
:1012E0009AA9ABA9BCA927968CAF9DAFAEAFBFAFF3
:1012F00027972DA53EA54FA558A923962CAF3DAF06
:101300004EAF5FAF239789A59AA5ABA5BCA52B9639
:101310008CAF9DAFAEAFBFAF2B972DA13EA14FA11C
:1013200058A52F962CAF3DAF4EAF5FAF2F9789A139
:101330009AA1ABA1BCA18BAF9CAFADAFBEAFC12C8E
:10134000D12C7601412C512C3201812C912C54014D
:101350006596EEADFFAD6597E5CD6B961FAD6B97CE
:101360001F936A962FAD6A972F9381E996E09F931A
:101370008F930E94DA100F900F900F900F906B9642
:101380000EAD1FAD6B970115110509F49CC0480106
:10139000A12CB12CC701B601A50194010E94410FF7
:1013A0003F932F9367966CAD7DAD8EAD9FAD6797E4
:1013B000A50194010E94410F3F932F9363966CAD5A
:1013C0007DAD8EAD9FAD6397A50194010E94410F45
:1013D0003F932F9327966CAD7DAD8EAD9FAD279734
:1013E000A50194010E94410F3F932F9323966CAD6A
:1013F0007DAD8EAD9FAD2397A50194010E94410F55
:101400003F932F932B966CAD7DAD8EAD9FAD2B97FB
:10141000A50194010E94410F3F932F932F966CAD2D
:101420007DAD8EAD9FAD2F97A50194010E94410F18
:101430003F932F936BAD7CAD8DAD9EADA501940117
:101440000E94410F3F932F938FE996E09F938F93D4
:101450000E94DA108E010F5F1F4F6F96EEACFFAC4B
:101460006F976E0121E2C20ED11C0FB6F894DEBF59
:101470000FBECDBF6B968EAD9FAD6B974C01A12C6F
:10148000B12CD8016D917D918D919D918D01A5011A
:1014900094010E94410FF701219331937F01C016FF
:1014A000D10679F7C25ADF4FE2E10C94920F1F92F6
:1014B0001F9281E996E09F938F930E94DA100F901C
:1014C0000F900F900F901F921F921F921F921F92CA
:1014D0001F921F921F921F921F921F921F921F9284
:1014E0001F921F921F928FE996E09F938F930E9405
:1014F000DA106F96EEADFFAD6F97CF0140960DB746
:101500001EB70E5E1F4F0FB6F894DEBF0FBECDBFE5
:1015100011921192E817F907D9F7C4CF60E875E284
:1015200080E090E00E94340580E690E090933D07D3
:1015300080933C070E94B2050E94C3050E94A40547
:101540000E94010C0E947C060E94A50B78940895CD
:101550000E948E0A2FEF8FEA91E021508040904048
:10156000E1F700C00000BB24B3940CEC16E00F2E92
:10157000FFEECF2EF6E0DF2EF02D0F2EF1E1EF2E55
:10158000F7E0FF2EF02D0CC080915708811104C0A8
:1015900080915608811117C08091540881116AC04A
:1015A00080915708811581F3809156088111ECCF05
:1015B000B092560810925108109250081092530899
:1015C00010925208E9CF109256088EEB96E00E94D6
:1015D000F010C0E0D0E0CE010E94EB05282F082ECD
:1015E000000C330B3F938F93DF93CF931F930F9395
:1015F0000E94DA1021960F900F900F900F900F908D
:101600000F90CA30D10539F7DF92CF920E94DA10DD
:10161000809152089091530860E478E00E94E606B9
:1016200080E498E00E940906C82FD92F0E94F50B8C
:10163000CC0FDD1FC259DF4F4881598160E080E047
:101640000E94D20B89818F9388818F93FF92EF92B2
:101650000E94DA109FEF2FE583E0915020408040F8
:10166000E1F700C000000F900F900F900F900F90C7
:101670000F9092CF10925408809152089091530885
:10168000803E9E420CF08CCF6091550880915008AE
:10169000909151080E94CE05809150089091510878
:1016A0000196909351088093500880915208909130
:1016B00053080196909353088093520871CF95B3C5
:1016C0009F70282F207F922B95BBAA98A89A94E010
:1016D0009A95F1F7A898E8E2F2E03197F1F700C0A7
:1016E000000095B38295807F9F70892B85BBA89A57
:1016F000F4E0FA95F1F7A89889E995E10197F1F7F7
:1017000000C0089595B39F70282F207F922B95BB22
:10171000AA9AA89A94E09A95F1F7A898E8E2F2E0DC
:101720003197F1F700C0000095B38295807F9F70DC
:10173000892B85BBA89AF4E0FA95F1F7A89889E976
:1017400095E10197F1F700C008958FEF84BB8FEF0B
:1017500097ED0197F1F700C0000082E00E945F0B57
:1017600088E20E945F0B8CE00E945F0B86E00E9483
:101770005F0B81E00E945F0B89E995E10197F1F72A
:1017800000C00895CF93DF93C82FD92F888181158A
:1017900031F021960E94820B89918111FBCFDF915C
:1017A000CF910895A2E0B0E0E8EDFBE00C94860F45
:1017B00049835A83813080F4603140F089819A8175
:1017C0000E94C20B2296E2E00C94A20F6F70862F4B
:1017D00080680E945F0BF2CF89F7603178F76F70F5
:1017E000862F806C0E945F0BE9CF81E00E945F0B27
:1017F00089E995E10197F1F700C080E80E945F0B4D
:10180000089580E687B986E886B90895369A3699AC
:10181000FECF85B190E00895ACE2B0E0E2E1FCE0FB
:101820000C94760F89A39AA36BA37CA32F8F38A364
:1018300081E090E07C0102C0EE0CFF1C4A95E2F7CB
:1018400021E0E21624E0F2060CF0CDC19701215010
:1018500031092115310509F00CF4CAC189A19AA1F9
:1018600002969E838D830BA11CA10E5F1F4F80E00B
:1018700090E0A1E0B0E0B88BAF8761E070E06D80F0
:101880007E8089A09AA0ABA0BCA00CC0AB014F5F2A
:101890005F4FBA01B2E06B0E711C0E5F1F4FE41672
:1018A000F506C9F1A7017E826D8255954795FA012B
:1018B000E80FF91F2E173F07C4F36D807E80FA01F1
:1018C00031978E239F23840F951F68177907F4F6AD
:1018D000F3010190F081E02DF887EF83AC01440F14
:1018E000551FF401E40FF51FC080D180D301CD92C4
:1018F000DD92AF81B885B183A083F801C080D1802B
:10190000F501E40FF51F40815181D8014D935D939E
:10191000D182C082BBCF588B4F87440F551FE9A19E
:10192000FAA1E40FF51FF8A7EFA31EA21DA229E05C
:1019300030E03E8F2D8F41E050E05C8F4B8F30C107
:10194000ABA1BCA1E9A1FAA12FA138A50BC091952B
:10195000819591090BC0903424F532961296E217C6
:10196000F30779F08081918199238CF3903464F4AA
:101970008D919D911297992374F791958195910975
:10198000EACF1E861D8604C081E090E09E878D8789
:10199000EDA1FEA12D853E85E20FF31FFEA3EDA371
:1019A00007C1A1E0B0E0BE87AD87F2CFA901E9A5EC
:1019B000FAA54E1B5F0BED81FE8151834083AC0184
:1019C000461B570BEF81F8855183408349A55AA5E3
:1019D000240F351FE985FA8531832083860F971FF1
:1019E000EB85FC85918380832BA53CA549895A8989
:1019F000240F351F3CA72BA7A60DB71D860C971CDF
:101A0000A60CB71CC60CD71C8F85988928173907D8
:101A10000CF063C0BE83AD836D917D911297609F82
:101A2000A001619F500D709F500D112498868F82E8
:101A3000F401208131812E9DC0012F9D900D3E9D8E
:101A4000900D112456FB222420F8312CF10157FD72
:101A5000319696FB442440F8512CA201990F411D68
:101A6000511DE41BF50BFAA7E9A7209FC001219F98
:101A7000900D309F900D11246E9D90016F9D300D43
:101A80007E9D300D112436FB552750F959831A825B
:101A9000E981FA8137FD31969F0196FBFF27F0F926
:101AA000FB831C826B817C81990F611D711D620F0C
:101AB000731FBA86A986F50120813181DC86CB8629
:101AC000F601808191814D855E85452B09F46ECFAD
:101AD000359527959595879569CFAB89BC891196E2
:101AE000BC8BAB8BED89FE893296FE8BED8B2F89FB
:101AF000388D2E5F3F4F388F2F8B4B8D5C8DA41709
:101B0000B507F1F18B899C890D8C02C0880F991F54
:101B10000A94E2F7FC01EE0FFF1FE258FD4F00812F
:101B20001181880F991FFC01E258FF4FE080F1807E
:101B30002F8D38A1232B19F4F194E194F1084D85F0
:101B40005E85452B21F015950795F594E7948B89D3
:101B50009C89AF85B8898A179B070CF0BECFAD89E9
:101B6000BE89E98DFA8DAE0FBF1F8F88988C8E0EBF
:101B70009F1ECF88D88CAD88BE889CA78BA74ACFE4
:101B80008D8D9E8D01979E8F8D8FA989BA89EF8546
:101B9000F889AE17BF0774F589899A899C8F8B8F56
:101BA000AF8DB8A1AB2B09F0CBCE31E03D871E86BF
:101BB0004B8D5C8D440F551F5A8B498B8B8D9C8DA3
:101BC0000097F1F2ECF23A01660C771C5A8F498FBC
:101BD000ABA1BCA1B88FAF8BE9A1FAA1FE8BED8BB5
:101BE0001B8A1C8A8FCF2FEF3FEF3EA32DA302C08D
:101BF0001EA21DA28DA19EA1AC96E2E10C94920FB3
:101C00000E94070E6894B1110C94960E08950E94DC
:101C10007B0E88F09F5798F0B92F9927B751B0F0F5
:101C2000E1F0660F771F881F991F1AF0BA95C9F760
:101C300014C0B13091F00E94950EB1E008950C945B
:101C4000950E672F782F8827B85F39F0B93FCCF30E
:101C5000869577956795B395D9F73EF490958095DD
:101C6000709561957F4F8F4F9F4F0895E89409C0FD
:101C700097FB3EF490958095709561957F4F8F4FBF
:101C80009F4F9923A9F0F92F96E9BB279395F695D5
:101C9000879577956795B795F111F8CFFAF4BB0F53
:101CA00011F460FF1BC06F5F7F4F8F4F9F4F16C0B7
:101CB000882311F096E911C0772321F09EE8872F41
:101CC000762F05C0662371F096E8862F70E060E0FD
:101CD0002AF09A95660F771F881FDAF7880F969576
:101CE000879597F9089557FD9058440F551F59F05F
:101CF0005F3F71F04795880F97FB991F61F09F3FF9
:101D000079F087950895121613061406551FF2CF21
:101D10004695F1DF08C0161617061806991FF1CF71
:101D200086957105610508940895E894BB27662798
:101D30007727CB0197F908950E94AF0E0C94200FDE
:101D40000E94120F38F00E94190F20F0952311F015
:101D50000C94090F0C940F0F11240C94960E0E94F2
:101D6000730E70F3959FC1F3950F50E0551F629F5E
:101D7000F001729FBB27F00DB11D639FAA27F00DE4
:101D8000B11DAA1F649F6627B00DA11D661F829F0B
:101D90002227B00DA11D621F739FB00DA11D621FF0
:101DA000839FA00D611D221F749F3327A00D611D0D
:101DB000231F849F600D211D822F762F6A2F1124EF
:101DC0009F5750409AF0F1F088234AF0EE0FFF1F22
:101DD000BB1F661F771F881F91505040A9F79E3F79
:101DE000510580F00C94090F0C94960E5F3FE4F3BC
:101DF000983ED4F3869577956795B795F795E795CF
:101E00009F5FC1F7FE2B880F911D9695879597F9D7
:101E1000089597F99F6780E870E060E008959FEF6C
:101E200080EC089500240A94161617061806090671
:101E3000089500240A941216130614060506089540
:101E4000092E0394000C11F4882352F0BB0F40F4C8
:101E5000BF2B11F460FF04C06F5F7F4F8F4F9F4F08
:101E60000895DB018F939F930E946B0FBF91AF91F9
:101E7000A29F800D911DA39F900DB29F900D1124E4
:101E80000895A1E21A2EAA1BBB1BFD010DC0AA1FBB
:101E9000BB1FEE1FFF1FA217B307E407F50720F0D3
:101EA000A21BB30BE40BF50B661F771F881F991F4E
:101EB0001A9469F760957095809590959B01AC0197
:101EC000BD01CF01089590958095709561957F4FE4
:101ED0008F4F9F4F08950E94AD0FA59F900DB49F07
:101EE000900DA49F800D911D112408952F923F9273
:101EF0004F925F926F927F928F929F92AF92BF921A
:101F0000CF92DF92EF92FF920F931F93CF93DF93C5
:101F1000CDB7DEB7CA1BDB0B0FB6F894DEBF0FBE22
:101F2000CDBF09942A88398848885F846E847D846F
:101F30008C849B84AA84B984C884DF80EE80FD8071
:101F40000C811B81AA81B981CE0FD11D0FB6F894E7
:101F5000DEBF0FBECDBFED010895A29FB001B39FBC
:101F6000C001A39F700D811D1124911DB29F700DA2
:101F7000811D1124911D0895283008F027E0332792
:101F8000DA01990F311D87FD916000966105710599
:101F900039F432602E5F3D9330E32A95E1F70895DE
:101FA0009F3F30F080387105610509F03C5F3C5F70
:101FB0003D93913008F08068911DDF93CF931F937C
:101FC0000F93FF92EF92192F987F9695E92F969590
:101FD0009695E90FFF27EE5AFC4D99273327EE24FB
:101FE000FF24A701E70105900894079428F4360F11
:101FF000E71EF81E491F511D660F771F881F991F86
:102000000694A1F70590079428F4E70EF81E491FDF
:10201000561FC11D770F881F991F661F0694A1F7D1
:102020000590079428F4F80E491F561FC71FD11DAD
:10203000880F991F661F771F0694A1F705900794D4
:1020400020F4490F561FC71FD81F990F661F771F0F
:10205000881F0694A9F784911095177041F0D695C2
:10206000C79557954795F794E7941A95C1F7E8EF08
:10207000F2E26894159015913591659195910590CE
:102080007FE27395E118F10A430B560BC90BD00997
:10209000C0F7E10CF11E431F561FC91FD01D7EF46F
:1020A000703311F48A95E6CFE894015030F0080FB0
:1020B0000AF40027021708F4202F2395022F7A3301
:1020C00028F079E37D932A95E9F710C07D932A954E
:1020D00089F6069497956795379517951794E118A3
:1020E000F10A430B560BC90BD00998F023957E914A
:1020F00073957A3308F070E37C932013B8F77E91E0
:1021000070617D9330F0839571E37D9370E32A9540
:10211000E1F71124EF90FF900F911F91CF91DF9184
:10212000992787FD90950895FC01059061507040B6
:102130000110D8F7809590958E0F9F1F0895FC0190
:102140006150704001900110D8F7809590958E0FE6
:102150009F1F08950F931F93CF93DF93182F092F7D
:10216000EB018B8181FD09C00FEF1FEF812F902FB5
:10217000DF91CF911F910F91089582FF14C02E819E
:102180003F818C819D81281739073CF4E881F981D2
:10219000CF0101968883998310838E819F81019658
:1021A0008E839F83E3CFE885F985812F0995892B5D
:1021B000A1F3DACFA0E0B0E0E0EEF0E10C94860FFE
:1021C000AE014B5F5F4FFA0161917191AF01809158
:1021D0003C0790913D070E94A501E2E00C94A20FFC
:1021E0000F931F93CF93DF93E0913C07F0913D074E
:1021F0002381EC0100E010E021FD0EC00FEF1FEF86
:10220000C801DF91CF911F910F91089521960995F3
:10221000892B11F00FEF1FEF888160913C077091BF
:102220003D07DB011896ED91FD918111EFCF8AE01A
:102230000995892B29F3E2CFFA01AA27283051F119
:10224000203181F1E8946F936E7F6E5F7F4F8F4FE7
:102250009F4FAF4FB1E03ED0B4E03CD0670F781F46
:10226000891F9A1FA11D680F791F8A1F911DA11D2B
:102270006A0F711D811D911DA11D20D009F4689464
:102280003F912AE0269F11243019305D3193DEF60C
:10229000CF010895462F4770405D4193B3E00FD0C2
:1022A000C9F7F6CF462F4F70405D4A3318F0495DAD
:1022B00031FD4052419302D0A9F7EACFB4E0A69590
:1022C0009795879577956795BA95C9F700976105B2
:1022D000710508959B01AC010A2E06945795479508
:1022E00037952795BA95C9F7620F731F841F951FFD
:1022F000A01D0895F894FFCF00407A10F35A00A073
:10230000724E18090010A5D4E80000E876481700BE
:1023100000E40B54020000CA9A3B000000E1F505FE
:10232000000080969800000040420F000000A08648
:1023300001000000102700000000E803000000007A
:102340006400000000000A0000000000010000001E
:1023500000002C76D888DC674F0823DFC1DFAE5938
:10236000E1B1B796E5E3E453C63AE651997696E8CB
:10237000E6C28426EB898C9B62ED407C6FFCEFBC4F
:102380009C9F40F2BAA56FA5F490055A2AF75C937A
:102390006B6CF9676DC11BFCE0E40D47FEF520E6B0
:1023A000B500D0ED902E0300943577050080841E93
:1023B000080000204E0A000000C80C333333330FEE
:1023C000986E12831141EF8D2114893BE65516CF8B
:1023D000FEE6DB18D1844B381BF77C1D901DA4BB97
:1023E000E424203284725E228100C9F124ECA1E54C
:0223F0003D2787
:1023F20000000003000000002E052905000014075C
:1024020017071B071E07230729072E07340700009B
:10241200C90092015B022403ED03B6047E05470660
:102422001007D907A1086A09320AFB0AC30B8B0CF1
:10243200530D1B0EE30EAB0F721039110012C712AF
:102442008E1355141B15E115A7166D173318F818BE
:10245200BD19821A461B0B1CCF1C931D561E191F39
:10246200DC1F9F2061212322E422A6236724272543
:10247200E725A72667272628E528A329612A1E2BF8
:10248200DB2B982C542D102ECC2E862F4130FB3076
:10249200B4316D322633DE3396344D350336B936D8
:1024A2006F372438D8388C393F3AF23AA43B563C3D
:1024B200073DB73D673E163FC53F73402041CD41C2
:1024C20079422543D0437A442345CC4574461C4780
:1024D200C34769480E49B349574AFA4A9D4B3F4C94
:1024E200E04C804D204EBF4E5D4FFA4F9750335116
:1024F200CE51685201539A533254C9545F55F45520
:1025020089561D57B0574258D3586359F359815AC7
:102512000F5B9C5B285CB35C3D5DC65D4F5ED65E27
:102522005D5FE25F6760EB606E61F0617162F16254
:102532007063EE636B64E7646265DD655666CE6662
:102542004567BC673168A56819698B69FC696C6A63
:10255200DB6A4A6BB76B236C8E6CF86C616DC96D6C
:10256200306E956EFA6E5E6FC06F22708270E1708F
:1025720040719D71F9715472AE7206735E73B573D8
:102582000A745E74B17403755475A475F37540765C
:102592008D76D87622776B77B377F9773F78837821
:1025A200C678087949798979C779047A417A7C7A37
:1025B200B57AEE7A257B5C7B917BC47BF77B297CA9
:1025C200597C887CB67CE27C0E7D387D617D897D7C
:1025D200B07DD57DF97D1C7E3E7E5E7E7E7E9C7EBC
:1025E200B97ED47EEF7E087F207F377F4C7F617F6C
:1025F200747F867F967FA67FB47FC17FCD7FD77F92
:10260200E07FE87FEF7FF57FF97FFC7FFE7FFF7F32
:10261200FE7FFC7FF97FF57FEF7FE87FE07FD77F4A
:10262200CD7FC17FB47FA67F967F867F747F617FD7
:102632004C7F377F207F087FEF7ED47EB97E9C7EE1
:102642007E7E5E7E3E7E1C7EF97DD57DB07D897D5F
:10265200617D387D0E7DE27CB67C887C597C297C4C
:10266200F77BC47B917B5C7B257BEE7AB57A7C7AA7
:10267200417A047AC779897949790879C678837861
:102682003F78F977B3776B772277D8768D76407675
:10269200F375A47554750375B1745E740A74B573D9
:1026A2005E730673AE725472F9719D714071E1707E
:1026B20082702270C06F5E6FFA6E956E306EC96D59
:1026C200616DF86C8E6C236CB76B4A6BDB6A6C6A5B
:1026D200FC698B691969A5683168BC674567CE6674
:1026E2005666DD656265E7646B64EE637063F16292
:1026F2007162F0616E61EB606760E25F5D5FD65EA2
:102702004F5EC65D3D5DB35C285C9C5B0F5B815A8E
:10271200F3596359D3584258B0571D578956F45547
:102722005F55C95432549A5301536852CE513351B2
:102732009750FA4F5D4FBF4E204E804DE04C3F4CBC
:102742009D4BFA4A574AB3490E496948C3471C4749
:102752007446CC4523457A44D04325437942CD4142
:1027620020417340C53F163F673EB73D073D563C8B
:10277200A43BF23A3F3A8C39D83824386F37B9360D
:1027820003364D359634DE3326336D32B431FB30A9
:102792004130862FCC2E102E542D982CDB2B1E2B45
:1027A200612AA329E52826286727A726E7252725C2
:1027B2006724A623E422232261219F20DC1F191F04
:1027C200561E931DCF1C0B1C461B821ABD19F818EE
:1027D20033186D17A716E1151B1555148E13C71262
:1027E200001239117210AB0FE30E1B0E530D8B0C3E
:1027F200C30BFB0A320A6A09A108D9071007470668
:102802007E05B604ED0324035B029201C9000000B9
:1028120037FF6EFEA5FDDCFC13FC4AFB82FAB9F918
:10282200F0F827F85FF796F6CEF505F53DF475F367
:10283200ADF2E5F11DF155F08EEFC7EE00EE39ED88
:1028420072ECABEBE5EA1FEA59E993E8CDE708E75A
:1028520043E67EE5BAE4F5E331E36DE2AAE1E7E0BF
:1028620024E061DF9FDEDDDD1CDD5ADC99DBD9DA95
:1028720019DA59D999D8DAD71BD75DD69FD5E2D4C0
:1028820025D468D3ACD2F0D134D17AD0BFCF05CF22
:102892004CCE93CDDACC22CC6ACBB3CAFDC947C9A0
:1028A20091C8DCC728C774C6C1C50EC55CC4AAC31B
:1028B200F9C249C299C1EAC03BC08DBFE0BE33BE76
:1028C20087BDDBBC30BC86BBDDBA34BA8CB9E4B898
:1028D2003DB897B7F2B64DB6A9B506B563B4C1B364
:1028E20020B380B2E0B141B1A3B006B069AFCDAEC2
:1028F20032AE98ADFFAC66ACCEAB37ABA1AA0CAA98
:1029020077A9E3A850A8BEA72DA79DA60DA67FA5CF
:10291200F1A464A4D8A34DA3C3A23AA2B1A12AA14F
:10292200A3A01EA0999F159F929E109E8F9D0F9D02
:10293200909C129C959B199B9E9A239AAA993299D4
:10294200BB984498CF975B97E796759604969495B3
:102952002595B6944994DD93729308939F9237928A
:10296200D0916B910691A2904090DE8F7E8F1F8F47
:10297200C08E638E078EAC8D528DFA8CA28C4B8CDE
:10298200F68BA28B4F8BFD8AAC8A5C8A0D8AC0893A
:1029920073892889DE8895884D880788C1877D8755
:1029A2003A87F886B78677863986FC85BF8584851F
:1029B2004B851285DB84A4846F843C840984D7838D
:1029C200A78378834A831E83F282C8829F8277829A
:1029D20050822B820782E481C281A281828164813A
:1029E20047812C811181F880E080C980B4809F806A
:1029F2008C807A806A805A804C803F803380298024
:102A02002080188011800B80078004800280546F20
:102A120074616C2053616D706C65733A2025750A80
:102A2200006E5F6672616D65733A2025750A0066F5
:102A32006561743A20257520257520257520257538
:102A42002025752025752025752025750A005072D0
:102A52006F63657373696E672E2E2E0056616C75F7
:102A6200657320696E207372616D3A2061646472CD
:102A72006573733A202564202D3E2025640A005692
:102A8200616C75657320696E207372616D3A2061A5
:102A92006464726573733A202564202D3E20256498
:102AA200002573006F6E006F666600757000646FBC
:102AB200776E007269676874006C6566740073747F
:0A2AC2006172740073746F700000FD
:00000001FF
