:100000000C946D000C9482000C9482000C9482007D
:100010000C9482000C9482000C9482000C94820058
:100020000C9482000C9482000C9482000C94820048
:100030000C9482000C9482000C9482000C94820038
:100040000C9482000C9482000C9482000C94820028
:100050000C948200807F1127060AE60A1FF1F10442
:10006000F5CC00BF00B200A5008B0098007E0071A7
:1000700000807F17150608F90E05EC0604F6807F50
:100080000D1AF604EA1505D906FEE7807F0D0FEE7E
:100090002EEE0302E906F8F5807BEE3DF51DEA172A
:1000A00009EDFD0304807F0F15010FEF100EDD0336
:1000B00006F0807F1A0AF8FFF40E08E30102F580CB
:1000C0007F1D32F4E0C71F21DFFB0EED807F11277B
:1000D000060AE60A1FF1F104F50011241FBECFE560
:1000E000D8E0DEBFCDBF10E0A0E6B0E0E8EFF1E081
:1000F00002C005900D92A036B107D9F70E94DB002F
:100100000C94FA000C9400008F929F92AF92BF92D1
:10011000CF92DF92EF92FF920F931F93CF93DF93D3
:10012000982EA92E0F2EF1E6EF2EF0E0FF2EF02DE7
:10013000B12C812CCC24CA94DC2C23C0C60FD71F31
:1001400011960196A017B10799F0FD014491FC01A9
:100150002491022E000C330B042E000C550BB90118
:10016000641B750B772354F7BA01621B730BE6CF40
:10017000CC15DD0510F48B2C6E01B394F8E0BF169E
:1001800061F0F701019111917F01D801892D9A2D1C
:10019000035F1F4FC0E0D0E0D8CF882DDF91CF9113
:1001A0001F910F91FF90EF90DF90CF90BF90AF9095
:1001B0009F908F9008958FEF87BB18BACFEF84E59B
:1001C00090E00E9484008111FACFC8BB2FEF8FEB23
:1001D00091E2215080409040E1F700C0000018BA41
:1001E0002FEF8FEB91E2215080409040E1F700C06B
:0801F0000000E5CFF894FFCFF9
:00000001FF
