:100000000C9456000C94F9030C9473000C94730038
:100010000C9473000C9473000C9473000C940F04F4
:100020000C9473000C9473000C9473000C94730084
:100030000C9473000C9473000C9473000C94730074
:100040000C9473000C9473000C9473000C94730064
:100050000C9473006E616E00696E66008C009400F3
:100060006C00A40084009C007C0074004B59063D89
:10007000C0EC1E3D93A9023D2A3A123DC8983B3D73
:10008000E4831E3D014D843D0C93293D499D803DF7
:100090007A362B3D2BF6173D787A253D925C7E3DD6
:1000A0009A99193D64CCDD3D0C93293D11241FBE66
:1000B000CFE5D8E0DEBFCDBF10E0A0E6B0E0E4E3DE
:1000C000F9E102C005900D92A83CB107D9F720E0F4
:1000D000A8ECB0E001C01D92AC3DB207E1F70E9470
:1000E000BC050C94130C0C940000AFE0B0E0EBE7FF
:1000F000F0E00C944A0A7C013B015A01FC01168293
:100100001782838181FF51C39AE0292EF701238151
:10011000F30123FD859123FF81913F01811509F4AE
:1001200042C0853239F423FD959123FF91913F011F
:10013000953239F4B70190E00E946F0B65015601CA
:10014000E5CF30E010E0812C912CF0E28F1608F022
:100150003CC09B3279F160F4903271F1933291F1AD
:100160009E3209F045C086FC1EC0689486F806C021
:100170009D3229F1903359F5689480F8F30123FDFD
:10018000959123FF91913F019111DFCF082D097FB8
:10019000903709F481C208F077C2983509F47FC21C
:1001A0009F3609F483C2F701868197812F96E2E199
:1001B0000C94660A689481F8689482F8DFCF68949A
:1001C00083F8DCCF689484F8D9CF87FC1BC080ED1E
:1001D000890F8A3028F686FE05C0129D800D1124F5
:1001E000182FCCCF929C800D1124982E8F2AC6CF29
:1001F0009C3619F4689487F8C1CF9C3409F198367D
:1002000009F4BCCF3115F1F0892F8F7D85548330EF
:1002100008F095C1650128E0C20ED11C8FE38983E7
:1002200001E010E05E013FEFA31AB30AE89487F8FB
:1002300083FC04C00915110508F4E8C1592CFEC15E
:1002400031E09CCF8BEB890F833090F4689484F875
:10025000905E86FE16E04FE38422953689F468941A
:1002600086F8212F183010F027E017E0412C14C039
:100270008BE9890F833008F062C1E89484F8E9CFF4
:10028000963699F5689487F8812F1C3308F08BE334
:1002900044244394480E27E0F501619171918191C6
:1002A00091916F01042DAE014F5F5F4F0E94810A53
:1002B0005C013980832D89700DE2813029F082FA4A
:1002C000002705F981FC0BE2F32DFC705F2EF11580
:1002D00041F133FA332433F801116AC224E0512C7E
:1002E000921608F47CC283E068C220E0111509F47C
:1002F000BDCF1150B6CF81108052B70190E00E945F
:100300006F0B0F5F1F4FF80184918111F4CF5114CF
:1003100009F415CFB70180E290E00E946F0B5A9468
:10032000F6CF87FE2FC0842D8A0D34FE04C09A813B
:10033000913309F4815044244394181634F4482E20
:10034000F9E08F1710F088E0482EC501B7FE02C013
:1003500080E090E0019601110196111531F0212FF6
:1003600030E02F5F3F4F820F931F8915910514F4E2
:10037000592C581A882D8970A1F551102BC00115E0
:10038000C9F131C086FC23C0E12FF0E01A151B042F
:100390003CF02CEFA2162FEFB20614F0689487F809
:1003A000CE010396E80FF91F01C01150111519F085
:1003B00082918033D1F387FE0AC044244394410ED6
:1003C000A116B10414F41A19C0CF10E0BECF85E015
:1003D00090E0C1CFB70180E290E00E946F0B5A9489
:1003E000CCCF011529F0B701802F90E00E946F0B50
:1003F00083FC02C051103FC087FE56C04501B7FEC6
:1004000002C0812C912CCE0101968A0D9B1DFC010E
:10041000E819F909EC87FD879501241931092E8720
:100420003F87012F10E0119501951109A814B90417
:100430004CF18E859F858815990524F5EC85FD8501
:100440008181F1E08F1A910880169106ECF02C85DD
:100450003D852F5F3F4F2C873D87B70190E00E947D
:100460006F0B3FEF8316980409F7B7018EE290E017
:100470000E946F0BDBCFB70180E390E00E946F0B0F
:100480005A94B8CF80E3DDCFA814B90431F49A812F
:10049000953318F039F434FE05C0B70190E00E949E
:1004A0006F0B35CF81E3F9CF8A81813311F0E89466
:1004B00034F8B70190E00E946F0B111124C085E45D
:1004C00090E084FC02C085E690E0B7010E946F0BCB
:1004D000A114B1041CF061F534FE2AC0B194A194BA
:1004E000B1088DE2B70190E00E946F0B80E39AE0C3
:1004F000A916B104FCF4B70190E00E946F0BB7019C
:10050000C501C096CCCFB7018EE290E00E946F0B80
:100510001E5F02E0802F0F5FFE013196E80FF11D94
:100520008081B70190E00E946F0B0113F3CFC7CF1A
:100530008BE2D8CF8F5F4AE0A41AB108D8CF9336A8
:10054000B9F1933709F442C0933509F44EC094369B
:1005500019F0993609F07EC0F50187FE73C06191EC
:100560007191819191916F01082D0F7697FF03C0D2
:100570000E943C0A00682AE030E05E01FFEFAF1AFB
:10058000BF0AA5010E94B50BB82EBA1806FF98C085
:10059000802F8E7FB11608F092C004FFE4C002FDE8
:1005A000D8C00E7E512E802F867809F494C0D6C014
:1005B0006501E2E0CE0ED11CF5018081898301E066
:1005C00010E05E01FFEFAF1ABF0A30CEF501A19037
:1005D000B1906F01612F70E086FC02C06FEF7FEF7A
:1005E000C5010E94640B8C0121CEF501A190B19050
:1005F0006F01612F70E086FC02C06FEF7FEFC501D5
:100600000E94590B8C01689487F812CEB70180E2E2
:1006100090E00E946F0B9A940DCEF50187FC8591B6
:1006200087FE81915F01B70190E00E946F0B81E02E
:10063000511001C080E0581A01501109011511052F
:1006400061F765CE619171916F01872F880F880BDB
:10065000982F8ACF953709F099CD082D0F7E2AE083
:1006600030E0F50107FF25C0619171918191919171
:100670006F015E01FFEFAF1ABF0AA5010E94B50B23
:10068000B82EBA180F7782CF983709F08CCD84FC3A
:1006900004C020E130E0E5CF00610460FACF84FEC1
:1006A00002C0082D066020E132E0DBCF28E030E018
:1006B000D8CF619171916F0180E090E0DACF082F7F
:1006C0005B2C04FF70CFFE01EB0DF11D80818033A8
:1006D00009F042C0097E03FD0EC000FF50C01B2D73
:1006E000591418F4190D1519592C892D85199514BB
:1006F00008F480E0580E591408F043C09518592C9E
:1007000004FF41C0B70180E390E00E946F0B02FF3D
:1007100009C088E590E001FD02C088E790E0B701DC
:100720000E946F0BB116D0F18E010F5F1F4FBA946C
:100730009E012E5F3F4F2B0D311D5901F501829116
:100740005F01B70190E00E946F0BA016B106B1F7F0
:10075000DECD512E082FB7CF02FD02C05394BBCF80
:1007600053945394B8CF512E082F1DCFB70180E278
:1007700090E00E946F0BA394A914C0F3B6CFA52CF0
:10078000FBCF512CBDCF802F867861F280E201FD36
:100790008BE207FD8DE2B70190E0C2CFB70180E3A5
:1007A00090E00E946F0B1150BDCF8FEF9FEFFECCFA
:1007B000F5E0512C9F1670F084E0592C581A83FCF8
:1007C00007C0B70180E290E00E946F0B5A94C9F70E
:1007D000011529F0B701802F90E00E946F0B04E50E
:1007E00010E0311002C008E510E084FA882484F893
:1007F0008ACD1F921FB61F9211248F939F939091C1
:10080000D30081E0911180E08093D30082B38058BF
:1008100082BB9F918F911F901FBE1F9018951F92B2
:100820000F920FB60F9211242F933F934F935F9324
:100830006F937F938F939F93AF93BF93EF93FF93A8
:100840008091D300811589F4FF91EF91BF91AF9111
:100850009F918F917F916F915F914F913F912F91D8
:100860000F900FBE0F901F9018950E946907805837
:100870008093D10081E08093D000E6CF8EB5886070
:100880008EBD8EB582608EBD8BEA90E09BBD8ABD29
:1008900089B7806189BF0895A7E0B0E0E2E5F4E0A0
:1008A0000C944A0A482E592E0F2EFCE56F2EF0E0CC
:1008B0007F2EF02DE12CF12C0EE710E07E826D8270
:1008C000ED81FE8185919591FC0145915591659150
:1008D0007591FC01349685919591A591B591BF9341
:1008E000AF939F938F937F936F935F934F93FF92F9
:1008F000EF921F930F930E949F0B9FEFE91AF90A43
:100900008D819E8102969E838D830FB6F894DEBF03
:100910000FBECDBF98E0E916F10491F6C12CD12CA1
:100920001B821C8280E289839CEB9A830F2EFEEB54
:100930003F2EF02D0F2EFCE42F2EF02D0BC09FEF3D
:10094000C91AD90A82E0680E711C98E0C916D10450
:1009500009F45CC0F301859195918C01085F1F4FEC
:10096000A12CB12C75014201881A990A9E838D83AE
:10097000ED81FE812591359145915591ED81FE8165
:10098000E80DF91D65917591859195910E94BC07BF
:10099000262F372F482F592F0E946009262F372FD7
:1009A000482F592F6A2D7B2D8E2D9F2D0E94BD071C
:1009B000A62EB72EE82EF92E8D819E8104969E8359
:1009C0008D8380179107A1F66A2D7B2D8E2D9F2D8B
:1009D0000E94D309062F172F8F839D8379816A8107
:1009E000272F362F432D522DFF81ED81602F712F40
:1009F0008F2F9E2F0E94290881150CF0A0CFCB824B
:100A0000DC8209831A833F802D8099CF8B819C8162
:100A10002796E2E10C94660A8A988F9A929A9798A0
:100A20008BB780648BBF85B7826085BF8AB78064CF
:100A30008ABF0895CF93DF93C82FD92FCA30D1052D
:100A400019F4DF91CF9108950E945807FE01EE0F2F
:100A5000FF1FE05AFF4F4081518160E080E00E941B
:100A600035072FEF3FE543E0215030404040E1F7AC
:100A700000C00000C830D10508F07CC0FE01EE5671
:100A8000F34F0C94440A8FEF88BB8FEF9FEB21E26A
:100A9000815090402040E1F700C00000D2CF18BA4A
:100AA0003FEF4FEB81E2315040408040E1F700C022
:100AB0000000C7CFC09A88B3817F88BB9FEF2FEB20
:100AC00031E2915020403040E1F700C00000B9CF42
:100AD000C29A88B3847F88BB4FEF8FEB91E241507D
:100AE00080409040E1F700C00000ABCFC19A88B3CE
:100AF000827F88BB2FEF3FEB41E2215030404040E6
:100B0000E1F700C000009DCFC39A88B3887F88BBFF
:100B10008FEF9FEB21E2815090402040E1F700C031
:100B200000008FCF80E090E061E070E028B3AB017F
:100B3000082E02C0440F551F0A94E2F7242B28BB4D
:100B40003FEF4FEB21E2315040402040E1F700C041
:100B5000000001968430910549F718BA3FEF4FEB3A
:100B600081E2315040408040E1F700C0000069CF91
:100B700018BA67CF18BA65CF00D0CDB7DEB78FEF00
:100B800087BB18BA0E943E040E94A4070E94640713
:100B90000E940C0578940E9408072FEF8FEA91E0DD
:100BA000215080409040E1F700C00000612CE12C12
:100BB000F12C87014701240154016401332433944B
:100BC000E4EDF0E0E983FA830CC08091D300811159
:100BD00004C08091D20081111BC08091D00081118E
:100BE00091C08091D300811581F38091D200811151
:100BF000ECCF1092CF001092CE003092D200EA2CAF
:100C0000FB2C0C2D1D2D8A2C9B2C5C2C4D2CE5CF08
:100C10001092D2008FEF9FEAE1E081509040E040D7
:100C2000E1F700C000006091CE007091CF00072E68
:100C3000000C880B990B0E94A208262F372F482FF3
:100C4000592F682D792D852D942D0E942E08E4EDC5
:100C5000F0E060837183828393836091CE00709112
:100C6000CF00072E000C880B990B0E94A208262F9C
:100C7000372F482F592F6E2D7F2D802F912F0E94B7
:100C80002E0820E030E543EC57E40E942E086093E4
:100C9000D8007093D9008093DA009093DB008981AB
:100CA0009A810E944C040E941A058091DB008F9368
:100CB0008091DA008F938091D9008F938091D80032
:100CC0008F938091D7008F938091D6008F938091DE
:100CD000D5008F93E4EDF0E080818F938FE890E072
:100CE0009F938F930E949F0B0FB6F894DEBF0FBEA9
:100CF000CDBFEA2CFB2C0C2D1D2D8A2C9B2C5C2CA3
:100D00004D2C6BCF7090D1008091CE009091CF0090
:100D100001969093CF008093CE0061141CF0711463
:100D20008CF402C0711474F020E030E040E85FE31E
:100D3000682D792D852D942D0E94BD07862E972E26
:100D4000582E492E672D072C000C770B880B990B1A
:100D50000E94A208262F372F482F592F0E94600982
:100D6000262F372F482F592F6E2D7F2D802F912F13
:100D70000E94BD07E62EF72E082F192F1092D000E3
:100D8000672C2FCF95B39F70282F207F922B95BB78
:100D9000AA98A89A94E09A95F1F7A898E8E2F2E068
:100DA0003197F1F700C0000095B38295807F9F7066
:100DB000892B85BBA89AF4E0FA95F1F7A89889E900
:100DC00095E10197F1F700C0089595B39F70282F22
:100DD000207F922B95BBAA9AA89A94E09A95F1F756
:100DE000A898E8E2F2E03197F1F700C0000095B36F
:100DF0008295807F9F70892B85BBA89AF4E0FA9535
:100E0000F1F7A89889E995E10197F1F700C00895F5
:100E10008FEF84BB8FEF97ED0197F1F700C00000D3
:100E200082E00E94C20688E20E94C2068CE00E9414
:100E3000C20686E00E94C20681E00E94C20689E9DD
:100E400095E10197F1F700C00895CF93DF93C82F84
:100E5000D92F8881811531F021960E94E50689916C
:100E60008111FBCFDF91CF910895A2E0B0E0EBE3D9
:100E7000F7E00C945A0A49835A83813080F4603138
:100E800040F089819A810E9425072296E2E00C9425
:100E9000760A6F70862F80680E94C206F2CF89F7AB
:100EA000603178F76F70862F806C0E94C206E9CFA0
:100EB00081E00E94C20689E995E10197F1F700C03F
:100EC00080E80E94C206089580E687B986E886B960
:100ED0000895369A3699FECF85B108955F9BFECF6F
:100EE0008CB190E008955D9BFECF8CB980E090E0DE
:100EF00008959B01AC01220F331F441F551F220F81
:100F0000331F441F551F220F331F441F551F220F2D
:100F1000331F441F551F60E070EC88EA90E00E9488
:100F20001A0A8FEF820F89B92150310941095109FD
:100F3000232F342F452F552720BD8AB188618AB9C8
:100F400080B5866880BD089560E072EC81E090E035
:100F50000E947907E8ECF0E080E790E093838283D9
:100F6000918380832FEF8FEA91E021508040904061
:100F7000E1F700C0000008955058BB27AA270E943F
:100F8000D4070C9426090E94180938F00E941F0902
:100F900020F039F49F3F19F426F40C9415090EF44F
:100FA000E095E7FB0C940109E92F0E94370958F3FB
:100FB000BA17620773078407950720F079F4A6F53E
:100FC0000C9459090EF4E0950B2EBA2FA02D0B01AD
:100FD000B90190010C01CA01A0011124FF27591B7E
:100FE00099F0593F50F4503E68F11A16F040A22F84
:100FF000232F342F4427585FF3CF469537952795F5
:10100000A795F0405395C9F77EF41F16BA0B620BF3
:10101000730B840BBAF09150A1F0FF0FBB1F661F3A
:10102000771F881FC2F70EC0BA0F621F731F841F7D
:1010300048F4879577956795B795F7959E3F08F0A3
:10104000B0CF9395880F08F09927EE0F9795879565
:1010500008950E94DD0808F481E008950E94420886
:101060000C9426090E941F0958F00E94180940F0AC
:1010700029F45F3F29F00C94010951110C945A098D
:101080000C9415090E94370968F39923B1F355238D
:1010900091F3951B550BBB27AA276217730784078B
:1010A00038F09F5F5F4F220F331F441FAA1FA9F321
:1010B00035D00E2E3AF0E0E832D091505040E6950F
:1010C000001CCAF72BD0FE2F29D0660F771F881F70
:1010D000BB1F261737074807AB07B0E809F0BB0B63
:1010E000802DBF01FF2793585F4F3AF09E3F510577
:1010F00078F00C9401090C945A095F3FE4F3983E90
:10110000D4F3869577956795B795F7959F5FC9F75F
:10111000880F911D9695879597F90895E1E0660FE0
:10112000771F881FBB1F621773078407BA0720F059
:10113000621B730B840BBA0BEE1F88F7E0950895C2
:10114000E89409C097FB3EF4909580957095619561
:101150007F4F8F4F9F4F9923A9F0F92F96E9BB2717
:101160009395F695879577956795B795F111F8CF93
:10117000FAF4BB0F11F460FF1BC06F5F7F4F8F4FFE
:101180009F4F16C0882311F096E911C0772321F0F4
:101190009EE8872F762F05C0662371F096E8862F8C
:1011A00070E060E02AF09A95660F771F881FDAF7E3
:1011B000880F9695879597F90895990F0008550F10
:1011C000AA0BE0E8FEEF16161706E807F907C0F0CD
:1011D00012161306E407F50798F0621B730B840BD5
:1011E000950B39F40A2661F0232B242B252B21F4AF
:1011F00008950A2609F4A140A6958FEF811D811D4F
:10120000089597F99F6780E870E060E008959F3F38
:1012100031F0915020F4879577956795B795880FB1
:10122000911D9695879597F908959FEF80EC089505
:1012300000240A94161617061806090608950024B5
:101240000A9412161306140605060895092E03942F
:10125000000C11F4882352F0BB0F40F4BF2B11F4A3
:1012600060FF04C06F5F7F4F8F4F9F4F089557FD02
:101270009058440F551F59F05F3F71F04795880F04
:1012800097FB991F61F09F3F79F08795089512169B
:1012900013061406551FF2CF4695F1DF08C0161647
:1012A00017061806991FF1CF8695710561050894F8
:1012B0000895E894BB2766277727CB0197F908950F
:1012C0000E9473090C9426090E94180938F00E94A4
:1012D0001F0920F0952311F00C9401090C941509B5
:1012E00011240C945A090E94370970F3959FC1F399
:1012F000950F50E0551F629FF001729FBB27F00DC4
:10130000B11D639FAA27F00DB11DAA1F649F662718
:10131000B00DA11D661F829F2227B00DA11D621F67
:10132000739FB00DA11D621F839FA00D611D221F21
:10133000749F3327A00D611D231F849F600D211D05
:10134000822F762F6A2F11249F5750409AF0F1F088
:1013500088234AF0EE0FFF1FBB1F661F771F881FF1
:1013600091505040A9F79E3F510580F00C9401091F
:101370000C945A095F3FE4F3983ED4F38695779531
:101380006795B795F795E7959F5FC1F7FE2B880F97
:10139000911D9695879597F9089519F416F40C9474
:1013A00015090C9407090E943F09B8F39923C9F362
:1013B000B6F39F57550B87FF0E94130A0024A0E63F
:1013C00040EA900180585695979528F4805C660F06
:1013D000771F881F20F026173707480730F4621B55
:1013E000730B840B202931294A2BA6951794079457
:1013F000202531254A2758F7660F771F881F20F0D0
:1014000026173707480730F4620B730B840B200D47
:10141000311D411DA09581F7B901842F9158880F86
:1014200096958795089591505040660F771F881FB5
:10143000D2F70895A1E21A2EAA1BBB1BFD010DC015
:10144000AA1FBB1FEE1FFF1FA217B307E407F50774
:1014500020F0A21BB30BE40BF50B661F771F881F50
:10146000991F1A9469F760957095809590959B01E6
:10147000AC01BD01CF01089590958095709561955F
:101480007F4F8F4F9F4F0895EE0FFF1F0590F491F0
:10149000E02D09942F923F924F925F926F927F922C
:1014A0008F929F92AF92BF92CF92DF92EF92FF9274
:1014B0000F931F93CF93DF93CDB7DEB7CA1BDB0B20
:1014C0000FB6F894DEBF0FBECDBF09942A883988C5
:1014D00048885F846E847D848C849B84AA84B984CC
:1014E000C884DF80EE80FD800C811B81AA81B981D8
:1014F000CE0FD11D0FB6F894DEBF0FBECDBFED01EC
:101500000895283008F027E03327DA01990F311DBC
:1015100087FD916000966105710539F432602E5F98
:101520003D9330E32A95E1F708959F3F30F08038EE
:101530007105610509F03C5F3C5F3D93913008F017
:101540008068911DDF93CF931F930F93FF92EF92CB
:10155000192F987F9695E92F96959695E90FFF2775
:10156000EC57F74E99273327EE24FF24A701E70114
:1015700005900894079428F4360FE71EF81E491FBB
:10158000511D660F771F881F991F0694A1F70590BC
:10159000079428F4E70EF81E491F561FC11D770F48
:1015A000881F991F661F0694A1F70590079428F4D9
:1015B000F80E491F561FC71FD11D880F991F661FA0
:1015C000771F0694A1F70590079420F4490F561F42
:1015D000C71FD81F990F661F771F881F0694A9F78A
:1015E00084911095177041F0D695C79557954795FA
:1015F000F794E7941A95C1F7EAE2F8E16894159038
:10160000159135916591959105907FE27395E1185B
:10161000F10A430B560BC90BD009C0F7E10CF11EC0
:10162000431F561FC91FD01D7EF4703311F48A95D5
:10163000E6CFE894015030F0080F0AF400270217B3
:1016400008F4202F2395022F7A3328F079E37D9335
:101650002A95E9F710C07D932A9589F60694979507
:101660006795379517951794E118F10A430B560BB8
:10167000C90BD00998F023957E9173957A3308F0C1
:1016800070E37C932013B8F77E9170617D9330F006
:10169000839571E37D9370E32A95E1F71124EF9030
:1016A000FF900F911F91CF91DF91992787FD909522
:1016B0000895FC010590615070400110D8F78095A5
:1016C00090958E0F9F1F0895FC016150704001900E
:1016D0000110D8F7809590958E0F9F1F08950F9356
:1016E0001F93CF93DF93182F092FEB018B8181FD7F
:1016F00009C00FEF1FEF812F902FDF91CF911F9126
:101700000F91089582FF14C02E813F818C819D81AD
:10171000281739073CF4E881F981CF0101968883C5
:10172000998310838E819F8101968E839F83E3CF5F
:10173000E885F985812F0995892BA1F3DACFA0E0FF
:10174000B0E0E5EAFBE00C945A0AAE014B5F5F4F54
:10175000FA0161917191AF018091CA009091CB0023
:101760000E947500E2E00C94760AFA01AA2728305C
:1017700051F1203181F1E8946F936E7F6E5F7F4F5E
:101780008F4F9F4FAF4FB1E03ED0B4E03CD0670FDA
:10179000781F891F9A1FA11D680F791F8A1F911D2D
:1017A000A11D6A0F711D811D911DA11D20D009F47D
:1017B00068943F912AE0269F11243019305D3193BF
:1017C000DEF6CF010895462F4770405D4193B3E0A8
:1017D0000FD0C9F7F6CF462F4F70405D4A3318F04F
:1017E000495D31FD4052419302D0A9F7EACFB4E000
:1017F000A6959795879577956795BA95C9F70097B8
:101800006105710508959B01AC010A2E0694579558
:10181000479537952795BA95C9F7620F731F841FAF
:10182000951FA01D0895F894FFCF00407A10F35A39
:1018300000A0724E18090010A5D4E80000E8764810
:10184000170000E40B54020000CA9A3B000000E1BC
:10185000F505000080969800000040420F0000004F
:10186000A08601000000102700000000E80300002F
:1018700000006400000000000A00000000000100F9
:10188000000000002C76D888DC674F0823DFC1DF1A
:10189000AE59E1B1B796E5E3E453C63AE65199761D
:1018A00096E8E6C28426EB898C9B62ED407C6FFC57
:1018B000EFBC9C9F40F2BAA56FA5F490055A2AF799
:1018C0005C936B6CF9676DC11BFCE0E40D47FEF5A2
:1018D00020E6B500D0ED902E03009435770500800A
:1018E000841E080000204E0A000000C80C33333369
:1018F000330F986E12831141EF8D2114893BE65509
:1019000016CFFEE6DB18D1844B381BF77C1D901DEB
:10191000A4BBE424203284725E228100C9F124EC4D
:10192000A1E53D2743054F055A0568057605840561
:041930009205B8055F
:10193400A200A500A900AC00B100B700BC00C20021
:10194400000000030000000073076E070000636CD2
:101954006173732025643A2025662025660A007A7F
:1019640063723A202566202C207374653A2025661C
:101974000A006F6E006F666600757000646F776EA4
:10198400007269676874006C6566740073746172D0
:08199400740073746F70000011
:00000001FF
