:100000000C94B6000C948F040C94D3000C94D30081
:100010000C94D3000C94D3000C94D3000C94A5043E
:100020000C94D3000C94D3000C94D3000C94D30004
:100030000C94D3000C94D3000C94D3000C94D300F4
:100040000C94D3000C94D3000C94D3000C94D300E4
:100050000C94D3006E616E00696E6600CC00AC003B
:100060008C006C004C012C010C01EC001B2FDD3CC2
:10007000022B073D643B9F3EBA492C3FF853A33EF9
:100080003BDF8F3E4A0C023E1283403D6F12033C21
:1000900039B4483D8FC2B53EF2D22D3F8941E03E92
:1000A0000681153EF4FD543CA69B443C6F12833BF5
:1000B000FCA9713DD9CEB73EC9763E3F23DB193F3F
:1000C0001904963EF0A7C63D5839B43C8FC2753C22
:1000D000C1CAA13D4E62D03EBC74333F0C020B3FFF
:1000E000CBA1853E1283403D6F12833B1283403D7E
:1000F00083C04A3E39B4283F713D0A3F986E923E14
:100100003108AC3D2506813DA69BC43CBC74133E22
:1001100060E5903ECBA1053F08AC3C3FE7FB093FC3
:10012000A69B843EEC51383E295C8F3D2731083E2A
:1001300077BE1F3EC976FE3E295C4F3F2FDD443F10
:100140004260053FB072A83EE3A59B3DEC51B83D2F
:10015000BA490C3E91EDBC3EA4701D3FE17A143FBC
:1001600021B0F23EB072A83EF4FD543D11241FBEF2
:10017000CFE5D8E0DEBFCDBF10E0A0E6B0E0ECE513
:10018000FCE102C005900D92A23CB107D9F721E035
:10019000A2ECB0E001C01D92A031B207E1F70E94CD
:1001A00056080C94AF0D0C940000AFE0B0E0EBEDFE
:1001B000F0E00C94DF0B7C013B015A01FC0116823C
:1001C0001782838181FF51C39AE0292EF701238191
:1001D000F30123FD859123FF81913F01811509F4EE
:1001E00042C0853239F423FD959123FF91913F015F
:1001F000953239F4B70190E00E94040D6501560173
:10020000E5CF30E010E0812C912CF0E28F1608F061
:100210003CC09B3279F160F4903271F1933291F1EC
:100220009E3209F045C086FC1EC0689486F806C060
:100230009D3229F1903359F5689480F8F30123FD3C
:10024000959123FF91913F019111DFCF082D097FF7
:10025000903709F481C208F077C2983509F47FC25B
:100260009F3609F483C2F701868197812F96E2E1D8
:100270000C94FB0B689481F8689482F8DFCF689443
:1002800083F8DCCF689484F8D9CF87FC1BC080ED5D
:10029000890F8A3028F686FE05C0129D800D112434
:1002A000182FCCCF929C800D1124982E8F2AC6CF68
:1002B0009C3619F4689487F8C1CF9C3409F19836BC
:1002C00009F4BCCF3115F1F0892F8F7D855483302F
:1002D00008F095C1650128E0C20ED11C8FE3898327
:1002E00001E010E05E013FEFA31AB30AE89487F83B
:1002F00083FC04C00915110508F4E8C1592CFEC19E
:1003000031E09CCF8BEB890F833090F4689484F8B4
:10031000905E86FE16E04FE38422953689F4689459
:1003200086F8212F183010F027E017E0412C14C078
:100330008BE9890F833008F062C1E89484F8E9CF33
:10034000963699F5689487F8812F1C3308F08BE373
:1003500044244394480E27E0F50161917191819105
:1003600091916F01042DAE014F5F5F4F0E94160CFB
:100370005C013980832D89700DE2813029F082FA89
:10038000002705F981FC0BE2F32DFC705F2EF115BF
:1003900041F133FA332433F801116AC224E0512CBD
:1003A000921608F47CC283E068C220E0111509F4BB
:1003B000BDCF1150B6CF81108052B70190E00E949E
:1003C000040D0F5F1F4FF80184918111F4CF511478
:1003D00009F415CFB70180E290E00E94040D5A9411
:1003E000F6CF87FE2FC0842D8A0D34FE04C09A817B
:1003F000913309F4815044244394181634F4482E60
:10040000F9E08F1710F088E0482EC501B7FE02C052
:1004100080E090E0019601110196111531F0212F35
:1004200030E02F5F3F4F820F931F8915910514F421
:10043000592C581A882D8970A1F551102BC001151F
:10044000C9F131C086FC23C0E12FF0E01A151B046E
:100450003CF02CEFA2162FEFB20614F0689487F848
:10046000CE010396E80FF91F01C01150111519F0C4
:1004700082918033D1F387FE0AC044244394410E15
:10048000A116B10414F41A19C0CF10E0BECF85E054
:1004900090E0C1CFB70180E290E00E94040D5A9431
:1004A000CCCF011529F0B701802F90E00E94040DF8
:1004B00083FC02C051103FC087FE56C04501B7FE05
:1004C00002C0812C912CCE0101968A0D9B1DFC014E
:1004D000E819F909EC87FD879501241931092E8760
:1004E0003F87012F10E0119501951109A814B90457
:1004F0004CF18E859F858815990524F5EC85FD8541
:100500008181F1E08F1A910880169106ECF02C851C
:100510003D852F5F3F4F2C873D87B70190E00E94BC
:10052000040D3FEF8316980409F7B7018EE290E0BF
:100530000E94040DDBCFB70180E390E00E94040D20
:100540005A94B8CF80E3DDCFA814B90431F49A816E
:10055000953318F039F434FE05C0B70190E00E94DD
:10056000040D35CF81E3F9CF8A81813311F0E8940E
:1005700034F8B70190E00E94040D111124C085E405
:1005800090E084FC02C085E690E0B7010E94040D73
:10059000A114B1041CF061F534FE2AC0B194A194F9
:1005A000B1088DE2B70190E00E94040D80E39AE06B
:1005B000A916B104FCF4B70190E00E94040DB70144
:1005C000C501C096CCCFB7018EE290E00E94040D29
:1005D0001E5F02E0802F0F5FFE013196E80FF11DD4
:1005E0008081B70190E00E94040D0113F3CFC7CFC3
:1005F0008BE2D8CF8F5F4AE0A41AB108D8CF9336E8
:10060000B9F1933709F442C0933509F44EC09436DA
:1006100019F0993609F07EC0F50187FE73C061912B
:100620007191819191916F01082D0F7697FF03C011
:100630000E94D70B00682AE030E05E01FFEFAF1A9E
:10064000BF0AA5010E94510DB82EBA1806FF98C026
:10065000802F8E7FB11608F092C004FFE4C002FD27
:10066000D8C00E7E512E802F867809F494C0D6C053
:100670006501E2E0CE0ED11CF5018081898301E0A5
:1006800010E05E01FFEFAF1ABF0A30CEF501A19076
:10069000B1906F01612F70E086FC02C06FEF7FEFB9
:1006A000C5010E94F90C8C0121CEF501A190B190F9
:1006B0006F01612F70E086FC02C06FEF7FEFC50114
:1006C0000E94EE0C8C01689487F812CEB70180E28C
:1006D00090E00E94040D9A940DCEF50187FC85915F
:1006E00087FE81915F01B70190E00E94040D81E0D7
:1006F000511001C080E0581A01501109011511056F
:1007000061F765CE619171916F01872F880F880B1A
:10071000982F8ACF953709F099CD082D0F7E2AE0C2
:1007200030E0F50107FF25C06191719181919191B0
:100730006F015E01FFEFAF1ABF0AA5010E94510DC4
:10074000B82EBA180F7782CF983709F08CCD84FC79
:1007500004C020E130E0E5CF00610460FACF84FE00
:1007600002C0082D066020E132E0DBCF28E030E057
:10077000D8CF619171916F0180E090E0DACF082FBE
:100780005B2C04FF70CFFE01EB0DF11D80818033E7
:1007900009F042C0097E03FD0EC000FF50C01B2DB2
:1007A000591418F4190D1519592C892D85199514FA
:1007B00008F480E0580E591408F043C09518592CDD
:1007C00004FF41C0B70180E390E00E94040D02FFE6
:1007D00009C088E590E001FD02C088E790E0B7011C
:1007E0000E94040DB116D0F18E010F5F1F4FBA9415
:1007F0009E012E5F3F4F2B0D311D5901F501829156
:100800005F01B70190E00E94040DA016B106B1F798
:10081000DECD512E082FB7CF02FD02C05394BBCFBF
:1008200053945394B8CF512E082F1DCFB70180E2B7
:1008300090E00E94040DA394A914C0F3B6CFA52C98
:10084000FBCF512CBDCF802F867861F280E201FD75
:100850008BE207FD8DE2B70190E0C2CFB70180E3E4
:1008600090E00E94040D1150BDCF8FEF9FEFFECCA2
:10087000F5E0512C9F1670F084E0592C581A83FC37
:1008800007C0B70180E290E00E94040D5A94C9F7B6
:10089000011529F0B701802F90E00E94040D04E5B6
:1008A00010E0311002C008E510E084FA882484F8D2
:1008B0008ACD5F9BFECF8CB190E008955D9BFECF0B
:1008C0008CB980E090E008959B01AC01220F331FAA
:1008D000441F551F220F331F441F551F220F331F64
:1008E000441F551F220F331F441F551F60E070EC3B
:1008F00088EA90E00E94B50B8FEF820F89B92150F2
:10090000310941095109232F342F452F552720BD87
:100910008AB188618AB980B5866880BD08951F92C2
:100920001FB61F9211248F939F9390910F0181E026
:10093000911180E080930F0182B3805882BB9F9118
:100940008F911F901FBE1F9018951F920F920FB688
:100950000F9211242F933F934F935F936F937F9345
:100960008F939F93AF93BF93EF93FF9380910F016A
:10097000811589F4FF91EF91BF91AF919F918F9174
:100980007F916F915F914F913F912F910F900FBE8B
:100990000F901F9018950E94A70980930D0181E088
:1009A00080930C01E7CF8EB588608EBD8EB58260D6
:1009B0008EBD8BEA90E09BBD8ABD89B7806189BFFF
:1009C000089587B3806B87BBBE9881E58DB91EB84B
:1009D00008958FB9779BFECF8FB10895C49808957D
:1009E000C49A08950E94EE0481E00E94E90480E424
:1009F0000E94E9040E94F0040895A3E0B0E0E3E05F
:100A0000F5E00C94EF0B8A839B8369830E94EE04CC
:100A100082E00E94E9048B810E94E9048A810E949D
:100A2000E90489810E94E9040E94F0042396E2E02F
:100A30000C940B0CA2E0B0E0E0E2F5E00C94EF0BBC
:100A400089839A830E94EE0483E00E94E9048A81EC
:100A50000E94E90489810E94E9048FEF0E94E90461
:100A600089830E94F00489812296E2E00C940B0CA9
:100A70008A988F9A929A97988BB780648BBF85B724
:100A8000826085BF8AB780648ABF0895A2E1B0E022
:100A9000ECE4F5E00C94DF0B6B877C874D875E8779
:100AA0009C013695279536952795369527953E8353
:100AB0002D838B859C85988B8F872D843E84FC01AC
:100AC000B096F887EF833A8629869C838B838D8145
:100AD0009E819A838983412C512C76C0F989FC33FD
:100AE00070F420E030E040E85FE3692D7A2D8B2D33
:100AF0009C2D0E94AE09962EA72EB82EC92E2989AC
:100B0000622F70E080E090E00E94910A20E030E0E7
:100B100040E05CE30E94480B262F372F482F592FC7
:100B20000E94480B262F372F482F592FEA896D2D09
:100B3000702F812F9E2F0E94AE09D62E072F182FBF
:100B40009A8B3FEFE31AF30AE614F704A1F08988C1
:100B5000C7010E941A05898BECE38E1608F0BECF00
:100B60008C3308F0BECFCBCFD12C00E010E01A8A36
:100B7000912C5801C12C892D9A2DAB2DBC2DEB81C8
:100B8000FC8181939193A193B193FC83EB838D2D91
:100B9000902FA12FBA89E985FA8581939193A1932A
:100BA000B193FA87E9872D813E81420E531E8981D8
:100BB0009A81820F931F9A838983EB81FC812F8115
:100BC0003885E217F30791F07201C2010E941A05FD
:100BD000898B69807A804614570434F6D12C00E062
:100BE00010E01A8A912C5801C12CB1CFEB85FC85FD
:100BF000C080D180E280F38034969E2C5F2C442408
:100C00004394FA83E9836C2C7D2C0FC08C2D26C075
:100C1000812C33C06A2C7B2C902E512E29813A8155
:100C20008F8198852817390779F1E981FA81A080A9
:100C3000B180028113813496FA83E9832C2D3D2DF6
:100C40004E2D5F2D6A2D7B2D802F912F0E941A0A29
:100C50008115E4F68A2DDB2CE02EF12EC82E842C93
:100C6000262D372D492D552D6A2D7B2D802F912F27
:100C70000E94430B811561F25CF28110CBCFA62C50
:100C8000B72C092D152DC6CF2C2D3D2D4E2D5F2DAA
:100C90006A2D7B2D802F912F0E94AD09A62EB72E95
:100CA000082F192F8C2C9D2CCF80D8840BC0EB855E
:100CB000FC854193519361937193FC87EB87EC150D
:100CC000FD0529F120E030E0A9016A2D7B2D802F60
:100CD000912F0E941A0A40E050E0BA01811539F3C1
:100CE000282D392D4E2D5F2DEB85FC85608171817E
:100CF000828193810E94AD092A2D3B2D402F512FD7
:100D00000E941F0A462F572F682F792FD0CFED85CD
:100D1000FE85E080F1809280838034960D851E856B
:100D2000005E1F4F5F2C492C3A822982FC83EB83A3
:100D30006E2C382C0DC08E2D24C0712C32C06A2C24
:100D40005B2C4C2C3D2C2B813C812017310781F1F1
:100D5000EB81FC81A080B180C280D3803496FC837B
:100D6000EB832E2D3F2D492D582D6A2D7B2D8C2D5B
:100D70009D2D0E941A0A8115F4F68A2DFB2C9C2CBD
:100D80008D2CE82E77247394262D352D442D532D4C
:100D90006A2D7B2D8C2D9D2D0E94430B811569F2B0
:100DA00064F27110CCCFA62CB52CC42CD32CC7CF99
:100DB00029803A802E2D3F2D492D582D6A2D7B2DCF
:100DC0008C2D9D2D0E94AD09A62EB72EC82ED92E92
:100DD0000BC0ED85FE854193519361937193FE871E
:100DE000ED87E017F10729F120E030E0A9016A2D35
:100DF0007B2D8C2D9D2D0E941A0A40E050E0BA01F7
:100E0000811539F32E2D3F2D492D582DED85FE8569
:100E100060817181828193810E94AD092A2D3B2DD1
:100E20004C2D5D2D0E941F0A462F572F682F792FBA
:100E3000D0CF86E790E09F938F930E94340D0F9060
:100E40000F90EF84F888CF80D884F701808191815A
:100E500022813381F4E0EF0EF11C3F932F939F9397
:100E60008F932CE730E03F932F930E94340D0F9027
:100E70000F900F900F900F900F90EC14FD0429F736
:100E800082E890E09F938F930E94340D0F900F9013
:100E9000F1018081918122813381F4E02F0E311C98
:100EA0003F932F939F938F932CE730E03F932F93A3
:100EB0000E94340D0F900F900F900F900F900F9095
:100EC0002016310629F78AE090E00E944A0D6296CA
:100ED000E2E10C94FB0BA6E1B0E0E1E7F7E00C9453
:100EE000DF0B8B879C87698B7A8B84E690E09887F1
:100EF0008F83ECE5F0E0FA87E9871E821D821B8A6A
:100F00001C8AFEE9FD8729EC2E878FE78F879FE7F4
:100F1000988BEB85FC85B096FC83EB8314C08D81A8
:100F20009E8101969E838D83EF81F8853296F887A6
:100F3000EF8389859A8502969A878987ED81FE815C
:100F4000349709F493C0EF81F88585919591E985EF
:100F5000FA85259035904B845C84F989F9832A8938
:100F60002A83812C712C612C912C281A390A9E8B92
:100F70008D8BF20161917191819191912F01ED8998
:100F8000FE8925913591459155910E94AD09A62E76
:100F9000B72EC82ED92EE981FA8161917191819184
:100FA0009191FA83E983ED89FE89E20DF31D259184
:100FB0003591459155910E94AD09E62EF72E082FE7
:100FC000192F2A2D3B2D4C2D5D2D6A2D7B2D8C2D1F
:100FD0009D2D0E94480BB62EC72ED82EA92E2E2D41
:100FE0003F2D402F512F6E2D7F2D802F912F0E944E
:100FF000480B262F372F482F592F6B2D7C2D8D2DE9
:101000009A2D0E94AE09262F372F482F592F682D71
:10101000772D862D992D0E94AE09862E772E682E6B
:10102000992E8D899E8904969E8B8D8BEB81FC81F8
:101030004E165F0609F09DCF7D856E859F85888958
:10104000272F362F492F582F682D772D862D992D34
:101050000E941A0A81150CF062CFFD81FB8B2E8154
:101060002C8B8D867E866F86988A59CF8B899C893A
:101070006696E2E10C94FB0B60E875E280E090E09C
:101080000E94640480E690E09093C5008093C400C1
:101090000E94E1040E94F2040E94D3040E94A2096B
:1010A0000E9438050E944609789408950E943C08E1
:1010B0002FEF8FEA91E0215080409040E1F700C08F
:1010C00000000F2EF9E8EF2EF0E0FF2EF02D05EADC
:1010D00010E0DD24D3940CC080910F01811104C075
:1010E00080910E0181111DC080910C01811163C09E
:1010F00080910F01811581F380910E018111ECCF58
:101100008FEF97ED0197F1F700C00000D0920E012C
:10111000109209011092080110920B0110920A011D
:10112000E3CF8FEF97ED0197F1F700C00000109229
:101130000E0180910A0190910B019F938F93FF9272
:10114000EF920E94340D80910A0190910B0148ECBE
:1011500050E068EE70E00E94460568EC70E088EEB2
:1011600090E00E946B07C82FD92F0E949609CC0FE0
:10117000DD1FC259DF4F4881598160E080E00E9445
:10118000730989818F9388818F931F930F930E9496
:10119000340D9FEF2FE583E0915020408040E1F730
:1011A00000C000008DB79EB708960FB6F8949EBF9A
:1011B0000FBE8DBF99CF10920C0180910A019091C2
:1011C0000B01803E9E4208F093CF60910D0180910B
:1011D0000801909109010E94FD04809108019091FD
:1011E00009010196909309018093080180910A01F9
:1011F00090910B01019690930B0180930A0178CF97
:1012000095B39F70282F207F922B95BBAA98A89A00
:1012100094E09A95F1F7A898E8E2F2E03197F1F7B7
:1012200000C0000095B38295807F9F70892B85BB9D
:10123000A89AF4E0FA95F1F7A89889E995E1019761
:10124000F1F700C0089595B39F70282F207F922B4F
:1012500095BBAA9AA89A94E09A95F1F7A898E8E223
:10126000F2E03197F1F700C0000095B38295807FDE
:101270009F70892B85BBA89AF4E0FA95F1F7A8989E
:1012800089E995E10197F1F700C008958FEF84BBDC
:101290008FEF97ED0197F1F700C0000082E00E9408
:1012A000000988E20E9400098CE00E94000986E0A3
:1012B0000E94000981E00E94000989E995E10197F7
:1012C000F1F700C00895CF93DF93C82FD92F8881FD
:1012D000811531F021960E94230989918111FBCF5C
:1012E000DF91CF910895A2E0B0E0E9E7F9E00C9436
:1012F000EF0B49835A83813080F4603140F089815B
:101300009A810E9463092296E2E00C940B0C6F70A4
:10131000862F80680E940009F2CF89F7603178F744
:101320006F70862F806C0E940009E9CF81E00E94D7
:10133000000989E995E10197F1F700C080E80E9472
:101340000009089580E687B986E886B90895369A37
:101350003699FECF85B190E008955058BB27AA2753
:101360000E94C5090C94090B0E94FB0A38F00E94E8
:10137000020B20F039F49F3F19F426F40C94F80A7C
:101380000EF4E095E7FB0C94F20AE92F0E941A0B89
:1013900058F3BA17620773078407950720F079F4AA
:1013A000A6F50C943C0B0EF4E0950B2EBA2FA02D55
:1013B0000B01B90190010C01CA01A0011124FF2702
:1013C000591B99F0593F50F4503E68F11A16F040FD
:1013D000A22F232F342F4427585FF3CF46953795FC
:1013E0002795A795F0405395C9F77EF41F16BA0BC1
:1013F000620B730B840BBAF09150A1F0FF0FBB1F6F
:10140000661F771F881FC2F70EC0BA0F621F731FB7
:10141000841F48F4879577956795B795F7959E3F14
:1014200008F0B0CF9395880F08F09927EE0F9795A5
:10143000879508950E94CE0A08F481E008950E94DD
:10144000330A0C94090B0E94020B58F00E94FB0A0D
:1014500040F029F45F3F29F00C94F20A51110C94EA
:101460003D0B0C94F80A0E941A0B68F39923B1F310
:10147000552391F3951B550BBB27AA2762177307BA
:10148000840738F09F5F5F4F220F331F441FAA1F4E
:10149000A9F335D00E2E3AF0E0E832D0915050400A
:1014A000E695001CCAF72BD0FE2F29D0660F771FB8
:1014B000881FBB1F261737074807AB07B0E809F09E
:1014C000BB0B802DBF01FF2793585F4F3AF09E3F23
:1014D000510578F00C94F20A0C943D0B5F3FE4F355
:1014E000983ED4F3869577956795B795F7959F5F66
:1014F000C9F7880F911D9695879597F90895E1E0B2
:10150000660F771F881FBB1F621773078407BA0710
:1015100020F0621B730B840BBA0BEE1F88F7E0956B
:101520000895E89409C097FB3EF4909580957095D6
:1015300061957F4F8F4F9F4F9923A9F0F92F96E91F
:10154000BB279395F695879577956795B795F11194
:10155000F8CFFAF4BB0F11F460FF1BC06F5F7F4F31
:101560008F4F9F4F16C0882311F096E911C0772343
:1015700021F09EE8872F762F05C0662371F096E84C
:10158000862F70E060E02AF09A95660F771F881F1B
:10159000DAF7880F9695879597F90895990F0008BF
:1015A000550FAA0BE0E8FEEF16161706E807F90735
:1015B000C0F012161306E407F50798F0621B730BD0
:1015C000840B950B39F40A2661F0232B242B252B51
:1015D00021F408950A2609F4A140A6958FEF811DF4
:1015E000811D089597F99F6780E870E060E0089595
:1015F0009FEF80EC089500240A941616170618062B
:101600000906089500240A94121613061406050606
:101610000895092E0394000C11F4882352F0BB0F97
:1016200040F4BF2B11F460FF04C06F5F7F4F8F4FFA
:101630009F4F089557FD9058440F551F59F05F3F35
:1016400071F04795880F97FB991F61F09F3F79F0E4
:1016500087950895121613061406551FF2CF469566
:10166000F1DF08C0161617061806991FF1CF8695E8
:101670007105610508940895E894BB2766277727CC
:10168000CB0197F908950E94CE0A08F48FEF0895D0
:101690000E945B0B0C94090B0E94FB0A38F00E941D
:1016A000020B20F0952311F00C94F20A0C94F80A26
:1016B00011240C943D0B0E941A0B70F3959FC1F3FB
:1016C000950F50E0551F629FF001729FBB27F00DF0
:1016D000B11D639FAA27F00DB11DAA1F649F662745
:1016E000B00DA11D661F829F2227B00DA11D621F94
:1016F000739FB00DA11D621F839FA00D611D221F4E
:10170000749F3327A00D611D231F849F600D211D31
:10171000822F762F6A2F11249F5750409AF0F1F0B4
:1017200088234AF0EE0FFF1FBB1F661F771F881F1D
:1017300091505040A9F79E3F510580F00C94F20A59
:101740000C943D0B5F3FE4F3983ED4F38695779578
:101750006795B795F795E7959F5FC1F7FE2B880FC3
:10176000911D9695879597F90895A1E21A2EAA1BC7
:10177000BB1BFD010DC0AA1FBB1FEE1FFF1FA21741
:10178000B307E407F50720F0A21BB30BE40BF50B3E
:10179000661F771F881F991F1A9469F760957095C7
:1017A000809590959B01AC01BD01CF010895909566
:1017B0008095709561957F4F8F4F9F4F08952F9221
:1017C0003F924F925F926F927F928F929F92AF92D1
:1017D000BF92CF92DF92EF92FF920F931F93CF931E
:1017E000DF93CDB7DEB7CA1BDB0B0FB6F894DEBFB5
:1017F0000FBECDBF09942A88398848885F846E84DB
:101800007D848C849B84AA84B984C884DF80EE8024
:10181000FD800C811B81AA81B981CE0FD11D0FB62D
:10182000F894DEBF0FBECDBFED010895283008F05B
:1018300027E03327DA01990F311D87FD916000966B
:101840006105710539F432602E5F3D9330E32A95CE
:10185000E1F708959F3F30F080387105610509F088
:101860003C5F3C5F3D93913008F08068911DDF93B1
:10187000CF931F930F93FF92EF92192F987F969516
:10188000E92F96959695E90FFF27E454F44E992792
:101890003327EE24FF24A701E7010590089407945D
:1018A00028F4360FE71EF81E491F511D660F771FDB
:1018B000881F991F0694A1F70590079428F4E70E56
:1018C000F81E491F561FC11D770F881F991F661FDD
:1018D0000694A1F70590079428F4F80E491F561FA7
:1018E000C71FD11D880F991F661F771F0694A1F788
:1018F0000590079420F4490F561FC71FD81F990F52
:10190000661F771F881F0694A9F78491109517709A
:1019100041F0D695C79557954795F794E7941A9552
:10192000C1F7E2E6FBE16894159015913591659158
:10193000959105907FE27395E118F10A430B560BE0
:10194000C90BD009C0F7E10CF11E431F561FC91F78
:10195000D01D7EF4703311F48A95E6CFE8940150DF
:1019600030F0080F0AF40027021708F4202F2395FF
:10197000022F7A3328F079E37D932A95E9F710C096
:101980007D932A9589F606949795679537951795CF
:101990001794E118F10A430B560BC90BD00998F0C4
:1019A00023957E9173957A3308F070E37C9320132E
:1019B000B8F77E9170617D9330F0839571E37D93EC
:1019C00070E32A95E1F71124EF90FF900F911F919A
:1019D000CF91DF91992787FD90950895FC0105909F
:1019E000615070400110D8F7809590958E0F9F1F21
:1019F0000895FC016150704001900110D8F7809566
:101A000090958E0F9F1F08950F931F93CF93DF9391
:101A1000182F092FEB018B8181FD09C00FEF1FEFFC
:101A2000812F902FDF91CF911F910F91089582FF09
:101A300014C02E813F818C819D81281739073CF489
:101A4000E881F981CF0101968883998310838E8183
:101A50009F8101968E839F83E3CFE885F985812F4F
:101A60000995892BA1F3DACFA0E0B0E0EAE3FDE02D
:101A70000C94EF0BAE014B5F5F4FFA0161917191D6
:101A8000AF018091C4009091C5000E94D500E2E0B2
:101A90000C940B0C6091C4007091C5000E94040D61
:101AA0000895FA01AA27283051F1203181F1E894F4
:101AB0006F936E7F6E5F7F4F8F4F9F4FAF4FB1E041
:101AC0003ED0B4E03CD0670F781F891F9A1FA11D3C
:101AD000680F791F8A1F911DA11D6A0F711D811D3D
:101AE000911DA11D20D009F468943F912AE0269F02
:101AF00011243019305D3193DEF6CF010895462F61
:101B00004770405D4193B3E00FD0C9F7F6CF462F41
:101B10004F70405D4A3318F0495D31FD40524193AA
:101B200002D0A9F7EACFB4E0A69597958795779567
:101B30006795BA95C9F700976105710508959B01EE
:101B4000AC010A2E06945795479537952795BA9577
:101B5000C9F7620F731F841F951FA01D0895F89485
:101B6000FFCF00407A10F35A00A0724E18090010FF
:101B7000A5D4E80000E87648170000E40B54020002
:101B800000CA9A3B000000E1F5050000809698002D
:101B9000000040420F000000A08601000000102756
:101BA00000000000E80300000000640000000000E6
:101BB0000A00000000000100000000002C76D88818
:101BC000DC674F0823DFC1DFAE59E1B1B796E5E32B
:101BD000E453C63AE651997696E8E6C28426EB8944
:101BE0008C9B62ED407C6FFCEFBC9C9F40F2BAA5E1
:101BF0006FA5F490055A2AF75C936B6CF9676DC179
:101C00001BFCE0E40D47FEF520E6B500D0ED902E7C
:101C10000300943577050080841E080000204E0ADA
:101C2000000000C80C333333330F986E1283114118
:101C3000EF8D2114893BE65516CFFEE6DB18D184E3
:101C40004B381BF77C1D901DA4BBE424203284720A
:0C1C50005E228100C9F124ECA1E53D27D3
:101C5C0000000003000000005E0459040000B10005
:101C6C00B600B900BD005A43523A2000252E336607
:101C7C0020000A5354453A200050726F6365737309
:101C8C00696E672E2E2E202825752073616D706C61
:101C9C006573290A00526573756C743A2025730AB2
:101CAC00006261636B00676F006F6E65007368693B
:021CBC007000B6
:00000001FF
