:100000000C9466000C947B000C947B000C947B0099
:100010000C947B000C947B000C947B000C947B0074
:100020000C947B000C947B000C947B000C947B0064
:100030000C947B000C947B000C947B000C947B0054
:100040000C947B000C947B000C947B000C947B0044
:100050000C947B00BF00B200A50098007E008B00CE
:1000600071006400807F17150608F90E05EC060480
:10007000F6807F0D1AF604EA1505D906FEE7807FA3
:100080000D0FEE2EEE0302E906F8F5807BEE3DF54E
:100090001DEA1709EDFD0304807F0F15010FEF1016
:1000A0000EDD0306F0807F1A0AF8FFF40E08E30164
:1000B00002F5807F1D32F4E0C71F21DFFB0EED80CB
:1000C0007F1127060AE60A1FF1F104F511241FBE6D
:1000D000CFE5D8E0DEBFCDBF10E0A0E6B0E0EAE6B5
:1000E000F4E002C005900D92A639B107D9F70E943D
:1000F000CE000C942B020C940000AF92BF92CF92D2
:10010000DF92EF92FF920F931F93CF93DF93E82E2E
:10011000F92EC4E5D0E0B12CA12C0FEF1FEF26C0C3
:100120006C0D7D1D2F5F3F4F28173907A9F0F9018E
:100130004491FD01E20FF31FE4910E2E000CFF0B22
:10014000042E000C550B6F01C41AD50ADD2044F7AC
:100150006A01CE1ADF0AE4CF6017710710F4AB2CE6
:100160008B01B3942296F8E0BF1661F0FE01459131
:100170005591CA010D969A0160E070E0D701A41B69
:10018000B50BD5CF8A2DDF91CF911F910F91FF90A5
:10019000EF90DF90CF90BF90AF9008958FEF87BB27
:1001A00018BA0E94D8012FEF3FEA41E021503040B9
:1001B0004040E1F700C000000E94050260E080E0DE
:1001C0000E94110204E610E0EE24E394F12CDFEF2C
:1001D0000F2EF4E5CF2EF0E0DF2EF02D10C0D8BBAF
:1001E0003FEF4FEB81E2315040408040E1F700C0EB
:1001F000000032E0C30ED11CC016D10649F3F6014F
:10020000859195910E947D00C82F0E94050260E0B3
:1002100080E00E941102EC2FF0E0EE0FFF1FE05A89
:10022000FF4F808191810E94F5018FEF9FEA21E0CD
:10023000815090402040E1F700C00000C83008F035
:100240006FC0EC2FF0E0E35DFD4F0C94250218BA6F
:100250009FEF2FEB31E2915020403040E1F700C09A
:100260000000C7CFC09A88B3817F88BB4FEF8FEB68
:1002700091E2415080409040E1F700C00000B9CFCA
:10028000C29A88B3847F88BB2FEF3FEB41E22150B5
:1002900030404040E1F700C00000ABCFC19A88B3C6
:1002A000827F88BB8FEF9FEB21E2815090402040FE
:1002B000E1F700C000009DCFC39A88B3887F88BB58
:1002C0003FEF4FEB81E2315040408040E1F700C00A
:1002D00000008FCF80E090E028B3A701082E02C075
:1002E000440F551F0A94E2F7242B28BB2FEF3FEB56
:1002F00041E2215030404040E1F700C0000001964B
:100300008430910549F718BA8FEF9FEB21E28150B5
:1003100090402040E1F700C000006BCF18BA69CFD1
:1003200018BA67CF95B39F70282F207F922B95BB6B
:10033000AA98A89A94E09A95F1F7A898E8E2F2E0D2
:100340003197F1F700C0000095B38295807F9F70D0
:10035000892B85BBA89AF4E0FA95F1F7A89889E96A
:1003600095E10197F1F700C0089595B39F70282F8C
:10037000207F922B95BBAA9AA89A94E09A95F1F7C0
:10038000A898E8E2F2E03197F1F700C0000095B3D9
:100390008295807F9F70892B85BBA89AF4E0FA959F
:1003A000F1F7A89889E995E10197F1F700C0089560
:1003B0008FEF84BB8FEF97ED0197F1F700C000003E
:1003C00082E00E94920188E20E9492018CE00E94E9
:1003D000920186E00E94920181E00E94920189E9E7
:1003E00095E10197F1F700C00895CF93DF93C82FEF
:1003F000D92F8881811531F021960E94B50189910C
:100400008111FBCFDF91CF91089581E00E9492018D
:1004100089E995E10197F1F700C080E80E94920117
:100420000895813048F4603108F00895862F8F7068
:1004300080680E9492010895C1F76031B0F7862F5D
:100440008F70806C0E9492010895EE0FFF1F05903F
:10045000F491E02D0994F894FFCFEF0027013201C9
:0A04600040014E015C016A018E01AB
:10046A007000730077007A007F0085008A00900090
:10047A006F6E006F666600757000646F776E00724B
:10048A0069676874006C65667400737461727400DD
:06049A0073746F70000096
:00000001FF
