:100000000C94BC000C94D1040C94D9000C94D9002D
:100010000C94D9000C94D9000C94D9000C94E704EA
:100020000C94D9000C94D9000C94D9000C94D900EC
:100030000C94D9000C94D9000C94D9000C94D900DC
:100040000C94D9000C94D9000C94D9000C94D900CC
:100050000C94D9006E616E00696E6600020408108F
:100060001820000204081018580138011801F8007F
:10007000D800B8009800780087FA953E8BA693C008
:1000800053DDE1C05951DEC08732ECC09745F2C064
:100090009961F8C0EC6DF7C0F52CA83E70528FC086
:1000A0004CB8E3C0CB13E5C0BDAAEBC0E771EDC00F
:1000B000E63CEEC07E71EBC041F0C03ECE0A86C089
:1000C00045A9C8C01CB7BEC038CBCDC0D09AC7C0E8
:1000D000008ECBC01CFBCEC000AEA43E643E7EC0F2
:1000E00076C0CBC07A8ECFC0B23BDFC09FB9D4C040
:1000F0001D13D5C0F6A5DEC0B0E49A3EC53B7BC05B
:10010000E6A4BAC07148C2C0C18DC6C06879C9C072
:100110000446D3C0719BD4C03C2FBD3E4D8497C0D4
:10012000EA97D7C048A9D8C0C5E4D8C024EED9C042
:1001300063D2E3C0F023EEC0E146BA3E4A3491C038
:100140000893D5C05AC5DFC0C699EAC06328DDC090
:100150003CDDD7C0084BDBC004CB993E26818BC069
:100160008C10C2C01E0BC6C0501DD2C09433D2C06A
:10017000F5ADDCC0B3C1E4C011241FBECFE5D8E0AB
:10018000DEBFCDBF17E0A0E6B0E0E6EAFFE102C0C7
:1001900005900D92A631B107D9F728E0A6E1B7E0A6
:1001A00001C01D92A433B207E1F70E94AB080C9482
:1001B000540F0C940000AFE0B0E0E1EEF0E00C94DE
:1001C0005F0D7C013B015A01FC011682178283817D
:1001D00081FF51C39AE0292EF7012381F30123FD0A
:1001E000859123FF81913F01811509F442C0853239
:1001F00039F423FD959123FF91913F01953239F414
:10020000B70190E00E94840E65015601E5CF30E011
:1002100010E0812C912CF0E28F1608F03CC09B324C
:1002200079F160F4903271F1933291F19E3209F0DC
:1002300045C086FC1EC0689486F806C09D3229F130
:10024000903359F5689480F8F30123FD959123FFCD
:1002500091913F019111DFCF082D097F903709F46B
:1002600081C208F077C2983509F47FC29F3609F43D
:1002700083C2F701868197812F96E2E10C947B0D72
:10028000689481F8689482F8DFCF689483F8DCCFB3
:10029000689484F8D9CF87FC1BC080ED890F8A3021
:1002A00028F686FE05C0129D800D1124182FCCCF94
:1002B000929C800D1124982E8F2AC6CF9C3619F45B
:1002C000689487F8C1CF9C3409F1983609F4BCCF03
:1002D0003115F1F0892F8F7D8554833008F095C159
:1002E000650128E0C20ED11C8FE3898301E010E094
:1002F0005E013FEFA31AB30AE89487F883FC04C0B9
:100300000915110508F4E8C1592CFEC131E09CCF54
:100310008BEB890F833090F4689484F8905E86FEAE
:1003200016E04FE38422953689F4689486F8212FED
:10033000183010F027E017E0412C14C08BE9890F2A
:10034000833008F062C1E89484F8E9CF963699F5D5
:10035000689487F8812F1C3308F08BE3442443947E
:10036000480E27E0F50161917191819191916F01A2
:10037000042DAE014F5F5F4F0E94960D5C013980E6
:10038000832D89700DE2813029F082FA002705F96A
:1003900081FC0BE2F32DFC705F2EF11541F133FA75
:1003A000332433F801116AC224E0512C921608F468
:1003B0007CC283E068C220E0111509F4BDCF115062
:1003C000B6CF81108052B70190E00E94840E0F5F7B
:1003D0001F4FF80184918111F4CF511409F415CF06
:1003E000B70180E290E00E94840E5A94F6CF87FE17
:1003F0002FC0842D8A0D34FE04C09A81913309F4F4
:10040000815044244394181634F4482EF9E08F1791
:1004100010F088E0482EC501B7FE02C080E090E0F1
:10042000019601110196111531F0212F30E02F5F57
:100430003F4F820F931F8915910514F4592C581AB8
:10044000882D8970A1F551102BC00115C9F131C05B
:1004500086FC23C0E12FF0E01A151B043CF02CEFC2
:10046000A2162FEFB20614F0689487F8CE01039617
:10047000E80FF91F01C01150111519F08291803356
:10048000D1F387FE0AC044244394410EA116B1045F
:1004900014F41A19C0CF10E0BECF85E090E0C1CFB0
:1004A000B70180E290E00E94840E5A94CCCF0115EF
:1004B00029F0B701802F90E00E94840E83FC02C0D7
:1004C00051103FC087FE56C04501B7FE02C0812CC7
:1004D000912CCE0101968A0D9B1DFC01E819F909AA
:1004E000EC87FD879501241931092E873F87012F5D
:1004F00010E0119501951109A814B9044CF18E85ED
:100500009F858815990524F5EC85FD858181F1E0AD
:100510008F1A910880169106ECF02C853D852F5F8F
:100520003F4F2C873D87B70190E00E94840E3FEF3C
:100530008316980409F7B7018EE290E00E94840EBA
:10054000DBCFB70180E390E00E94840E5A94B8CFCD
:1005500080E3DDCFA814B90431F49A81953318F003
:1005600039F434FE05C0B70190E00E94840E35CF07
:1005700081E3F9CF8A81813311F0E89434F8B7012F
:1005800090E00E94840E111124C085E490E084FC68
:1005900002C085E690E0B7010E94840EA114B10468
:1005A0001CF061F534FE2AC0B194A194B1088DE22B
:1005B000B70190E00E94840E80E39AE0A916B1048E
:1005C000FCF4B70190E00E94840EB701C501C0960B
:1005D000CCCFB7018EE290E00E94840E1E5F02E055
:1005E000802F0F5FFE013196E80FF11D8081B7016A
:1005F00090E00E94840E0113F3CFC7CF8BE2D8CFD7
:100600008F5F4AE0A41AB108D8CF9336B9F1933777
:1006100009F442C0933509F44EC0943619F0993666
:1006200009F07EC0F50187FE73C0619171918191DF
:1006300091916F01082D0F7697FF03C00E94450D21
:1006400000682AE030E05E01FFEFAF1ABF0AA501A3
:100650000E94F60EB82EBA1806FF98C0802F8E7F23
:10066000B11608F092C004FFE4C002FDD8C00E7EAF
:10067000512E802F867809F494C0D6C06501E2E03F
:10068000CE0ED11CF5018081898301E010E05E016E
:10069000FFEFAF1ABF0A30CEF501A190B1906F0104
:1006A000612F70E086FC02C06FEF7FEFC5010E94F2
:1006B000790E8C0121CEF501A190B1906F01612FCF
:1006C00070E086FC02C06FEF7FEFC5010E946E0EE6
:1006D0008C01689487F812CEB70180E290E00E9406
:1006E000840E9A940DCEF50187FC859187FE819149
:1006F0005F01B70190E00E94840E81E0511001C0BB
:1007000080E0581A015011090115110561F765CEF5
:10071000619171916F01872F880F880B982F8ACF75
:10072000953709F099CD082D0F7E2AE030E0F501CC
:1007300007FF25C061917191819191916F015E01D7
:10074000FFEFAF1ABF0AA5010E94F60EB82EBA1825
:100750000F7782CF983709F08CCD84FC04C020E15C
:1007600030E0E5CF00610460FACF84FE02C0082DBE
:10077000066020E132E0DBCF28E030E0D8CF6191A5
:1007800071916F0180E090E0DACF082F5B2C04FFBD
:1007900070CFFE01EB0DF11D8081803309F042C066
:1007A000097E03FD0EC000FF50C01B2D591418F424
:1007B000190D1519592C892D8519951408F480E007
:1007C000580E591408F043C09518592C04FF41C025
:1007D000B70180E390E00E94840E02FF09C088E523
:1007E00090E001FD02C088E790E0B7010E94840E0E
:1007F000B116D0F18E010F5F1F4FBA949E012E5F8C
:100800003F4F2B0D311D5901F50182915F01B70159
:1008100090E00E94840EA016B106B1F7DECD512EF5
:10082000082FB7CF02FD02C05394BBCF539453940B
:10083000B8CF512E082F1DCFB70180E290E00E9463
:10084000840EA394A914C0F3B6CFA52CFBCF512CD2
:10085000BDCF802F867861F280E201FD8BE207FD3B
:100860008DE2B70190E0C2CFB70180E390E00E9433
:10087000840E1150BDCF8FEF9FEFFECCF5E0512CD1
:100880009F1670F084E0592C581A83FC07C0B701FA
:1008900080E290E00E94840E5A94C9F7011529F075
:1008A000B701802F90E00E94840E04E510E0311023
:1008B00002C008E510E084FA882484F88ACD0F93FA
:1008C0001F93062F172F282F392F80E090E001303B
:1008D00011052105310528F139F1B901A80180E0A0
:1008E00076956795579547958F5F4230510561051D
:1008F0007105B0F78330E0F0682F6350770B04C0C8
:1009000036952795179507956A95D2F707701127A1
:1009100090E0880F991F880F991F880F991F800FEB
:10092000911F1F910F91089580E000E010E0F0CF3B
:1009300000E010E0EDCF5F9BFECF8CB190E008951A
:100940005D9BFECF8CB980E090E008959B01AC01E7
:10095000220F331F441F551F220F331F441F551FE3
:10096000220F331F441F551F220F331F441F551FD3
:1009700060E070EC88EA90E00E94230D8FEF820F18
:1009800089B92150310941095109232F342F452FAD
:10099000552720BD8AB188618AB980B5866880BD37
:1009A00008951F921FB61F9211248F939F939091C9
:1009B000330881E0911180E08093330882B380583E
:1009C00082BB9F918F911F901FBE1F9018951F9201
:1009D0000F920FB60F9211242F933F934F935F9373
:1009E0006F937F938F939F93AF93BF93EF93FF93F7
:1009F00080913308811589F4FF91EF91BF91AF91F8
:100A00009F918F917F916F915F914F913F912F9126
:100A10000F900FBE0F901F9018950E94D10980581B
:100A20008093310881E080933008E6CF8EB58860EE
:100A30008EBD8EB582608EBD8BEA90E09BBD8ABD77
:100A400089B7806189BF089587B3806B87BBBE98E3
:100A500081E58DB91EB808958FB9779BFECF8FB110
:100A60000895C4980895C49A08950E94310581E0BC
:100A70000E942C0580E40E942C050E9433050895F5
:100A8000A3E0B0E0E6E4F5E00C946F0D8A839B836D
:100A900069830E94310582E00E942C058B810E94AF
:100AA0002C058A810E942C0589810E942C050E94B8
:100AB00033052396E2E00C948B0DA2E0B0E0E3E670
:100AC000F5E00C946F0D89839A830E94310583E0D1
:100AD0000E942C058A810E942C0589810E942C0588
:100AE0008FEF0E942C0589830E943305898122960D
:100AF000E2E00C948B0DA8E0B0E0E1E8F5E00C94A6
:100B00005F0D282E392E0F2EF8E6AF2EF0E0BF2E07
:100B1000F02DC12CD12C1D821E828FEF9FEFDC01A6
:100B200089839A83AB83BC83710190E1E90EF11C48
:100B30008EEF9FEF4C01821893080BC09FEFC91AEC
:100B4000D90AA2E0AA0EB11CB8E0CB16D10409F470
:100B50003FC0F5010591159138862F82412C512C0B
:100B60003201080D191DAF81B8856D917D91B8874F
:100B7000AF83FD01E00FF11F2591359180E090E0FA
:100B8000621B730B810991099B01AC010E94130D3B
:100B9000672F782F892F992787FD9A95460E571E24
:100BA000681E791EEF81F885EE15FF05E1F6898153
:100BB0009A81AB81BC81481659066A067B0608F00B
:100BC000BDCFCD82DE8249825A826B827C82B6CFD3
:100BD0008D819E812896E2E10C947B0D8A988F9AF4
:100BE000929A97988BB780648BBF85B7826085BFD8
:100BF0008AB780648ABF0895A4E0B0E0E2E0F6E03E
:100C00000C946C0D89839A83623080F1FF24FA94EE
:100C1000F60E89819A818F0D911D8F0D911D9C83F8
:100C20008B83EB81FC810081118172916291FC8345
:100C3000EB83072E000C880B990B0E94030C2CEE03
:100C400031E548E75FE30E94670C0E94CB0B462F1B
:100C5000572F041B150BEB81FC8113830283FA943D
:100C6000F110DFCFE981FA81118210822496E5E04C
:100C70000C94880DA6E7B0E0E0E4F6E00C945F0D7C
:100C8000E2968FAFE297E3969FAFE397E0966FAF60
:100C9000E097E1967FAFE1979E012F5F3F4FE5968A
:100CA0003FAF2EAFE597AE01475E5F4F6D965FAFEA
:100CB0004EAF6D97F90111921192119211926D96AA
:100CC0008EAD9FAD6D97E817F907A9F7E3969FAD35
:100CD000E3979F93E296AFADE297AF938EE796E0EE
:100CE0009F938F930E94B40E0F900F900F900F90D0
:100CF000E396EEADFFADE397E034F10508F4F9C1FA
:100D00009E01275E3F4F6B963FAF2EAF6B97190149
:100D1000319421943108AF961CAE1DAE1EAE1FAEAD
:100D2000AF97AB961CAE1DAE1EAE1FAEAB97A7968F
:100D30001FAE1EAEA7970F2EF9E1CF2ED12CF02DAE
:100D4000CC0EDD1E30E4C30ED11C49E150E04C0F47
:100D50005D1F415C5F4FE7965FAF4EAFE7978CE951
:100D600097E00296A5969FAF8EAFA59716C18617FE
:100D7000970749F0FC012181019640812427211524
:100D8000B4F73F5FF4CF832F90E0880F991F880F4F
:100D9000991FAB962CAD3DAD4EAD5FADAB97280F17
:100DA000391F411D511DAB962CAF3DAF4EAF5FAF0C
:100DB000AB97FE01799640E050E0BA01819188023C
:100DC000C0011124092E000C0008480F591F601D96
:100DD000701DEC15FD0591F7CB01BA010E945F046F
:100DE000AF962CAD3DAD4EAD5FADAF97280F391F1F
:100DF000411D511DAF962CAF3DAF4EAF5FAFAF97CA
:100E00002CE137E0ACE9B7E0FE017996BD018191B4
:100E100040E48402C0011124DB018D939D93BD0148
:100E2000D9011D921D929D01EC15FD0581F760E42D
:100E30008CE997E00E94FC0520E030E046E050E0BD
:100E40006CE177E08CE997E00E94D709E5EAF6E0EB
:100E5000FF93EF930E94B40E42E650E06F965FAFAF
:100E60004EAF6F978CE590E0A1969FAF8EAFA197A4
:100E70000F900F90E596AEADBFADE597A396BFAFCF
:100E8000AEAFA3976F96EEADFFAD6F979491A1961D
:100E9000EEADFFADA1978491981708F098C0E92EA8
:100EA000F12C8701000F111FF801E456F84F045E82
:100EB000184F8150891BE80EF11CEE0CFF1CA59603
:100EC0002EAD3FADA597E20EF31E412C512C320101
:100ED00081919191D8014D915D918D019C01DC0131
:100EE0000E94FC0C4B015C019A01DA010E94FC0C8F
:100EF000860E971EA81EB91E892C9A2CAB2CBB24DB
:100F0000480C591C6A1C7B1CEE15FF0509F7C30130
:100F1000B2010E945F04A396EEADFFADA39741918D
:100F2000519161917191A396FFAFEEAFA397480FD6
:100F3000591F611D711D72936293529342936F9674
:100F40002EAD3FAD6F972F5F3F4F6F963FAF2EAFE8
:100F50006F97A1964EAD5FADA1974F5F5F4FA19682
:100F60005FAF4EAFA1972856304009F08BCFA796C0
:100F70008EAD9FADA7970196A7969FAF8EAFA7970F
:100F800090E2290E311CC601820D931DE396AEAD91
:100F9000BFADE397A817B907F0F08E01075E1F4FAA
:100FA000C801820D931D0E945D05D8018D938D01AE
:100FB000AC15BD05A9F781E996E00E94CA0ECE01E5
:100FC000499630E0E7966EAD7FADE797D3CE412CE2
:100FD000512C32019CCFA796BFADA797BF93A69681
:100FE000EFADA697EF9385EB96E09F938F930E94CA
:100FF000B40E0F900F900F900F90A7962EAD3FADAF
:10100000A7972115310509F480C06901E12CF12C65
:10101000AB966CAD7DAD8EAD9FADAB97A701960144
:101020000E94230DE196AEADBFADE1972D933D93A8
:10103000AF966CAD7DAD8EAD9FADAF97A70196011C
:101040000E94230DE196EEADFFADE197338322833D
:101050008F010C5F1F4FE596AEACBFACE597D50195
:101060006D917D918D919D915D01A70196010E94E9
:10107000230DF801219331938F016D962EAD3FAD75
:101080006D97A216B30659F7E196AEADBFADE197E5
:101090001F968C918F938E918F938E918F938E91BB
:1010A0008F938E918F938E918F938E918F938E913C
:1010B0008F938E918F938E918F938E918F938E912C
:1010C0008F938E918F938E918F938E918F938E911C
:1010D0008F9383EC96E09F938F930E94B40E0FB68C
:1010E000F894DEBF0FBECDBFCA58DF4FE2E10C94CB
:1010F0007B0D1F921F9285EB96E09F938F930E942A
:10110000B40E0F900F900F900F90E196EEADFFADE3
:10111000E197CF014096119211928E179F07D9F750
:10112000B3CF60E875E280E090E00E94A60480E61C
:1011300090E090931907809318070E9424050E945D
:1011400035050E9416050E94CC090E94EE050E94FA
:101150007009789408950E9491082FEF8FEA91E02A
:10116000215080409040E1F700C0000011E00CC029
:1011700080913308811104C080913208811117C019
:1011800080913008811141C080913308811581F32D
:10119000809132088111ECCF1093320810922D0803
:1011A00010922C0810922F0810922E08E9CF10925E
:1011B000320882EE96E00E94CA0E80912E0890912D
:1011C0002F086CE178E00E943A068CE198E00E94DA
:1011D0007B05C82FD92F0E94C009CC0FDD1FC25933
:1011E000DF4F4881598160E080E00E949D0988813D
:1011F00099810E94CA0E2FEF8FE593E02150804025
:101200009040E1F700C00000BBCF10923008809101
:101210002E0890912F08803E9E420CF0B5CF609131
:10122000310880912C0890912D080E9440058091F2
:101230002C0890912D08019690932D0880932C08EE
:1012400080912E0890912F08019690932F088093FB
:101250002E089ACF95B39F70282F207F922B95BB95
:10126000AA98A89A94E09A95F1F7A898E8E2F2E093
:101270003197F1F700C0000095B38295807F9F7091
:10128000892B85BBA89AF4E0FA95F1F7A89889E92B
:1012900095E10197F1F700C0089595B39F70282F4D
:1012A000207F922B95BBAA9AA89A94E09A95F1F781
:1012B000A898E8E2F2E03197F1F700C0000095B39A
:1012C0008295807F9F70892B85BBA89AF4E0FA9560
:1012D000F1F7A89889E995E10197F1F700C0089521
:1012E0008FEF84BB8FEF97ED0197F1F700C00000FF
:1012F00082E00E942A0988E20E942A098CE00E946A
:101300002A0986E00E942A0981E00E942A0989E9C7
:1013100095E10197F1F700C00895CF93DF93C82FAF
:10132000D92F8881811531F021960E944D0989912C
:101330008111FBCFDF91CF910895A2E0B0E0E3EA05
:10134000F9E00C946F0D49835A83813080F4603149
:1013500040F089819A810E948D092296E2E00C94E6
:101360008B0D6F70862F80680E942A09F2CF89F753
:10137000603178F76F70862F806C0E942A09E9CF60
:1013800081E00E942A0989E995E10197F1F700C0FF
:1013900080E80E942A09089580E687B986E886B920
:1013A0000895369A3699FECF85B190E00895ACE263
:1013B000B0E0EDEDF9E00C945F0D89A39AA36BA367
:1013C0007CA32F8F38A381E090E07C0102C0EE0C5B
:1013D000FF1C4A95E2F721E0E21624E0F2060CF049
:1013E000CDC19701215031092115310509F00CF4C7
:1013F000CAC189A19AA102969E838D830BA11CA1CB
:101400000E5F1F4F80E090E0A1E0B0E0B88BAF87A7
:1014100061E070E06D807E8089A09AA0ABA0BCA046
:101420000CC0AB014F5F5F4FBA01B2E06B0E711C95
:101430000E5F1F4FE416F506C9F1A7017E826D828B
:1014400055954795FA01E80FF91F2E173F07C4F38A
:101450006D807E80FA0131978E239F23840F951F24
:1014600068177907F4F6F3010190F081E02DF88711
:10147000EF83AC01440F551FF401E40FF51FC0804A
:10148000D180D301CD92DD92AF81B885B183A083A5
:10149000F801C080D180F501E40FF51F4081518132
:1014A000D8014D935D93D182C082BBCF588B4F87BB
:1014B000440F551FE9A1FAA1E40FF51FF8A7EFA308
:1014C0001EA21DA229E030E03E8F2D8F41E050E0AA
:1014D0005C8F4B8F30C1ABA1BCA1E9A1FAA12FA1B8
:1014E00038A50BC09195819591090BC0903424F5D6
:1014F00032961296E217F30779F080819181992351
:101500008CF3903464F48D919D911297992374F724
:10151000919581959109EACF1E861D8604C081E0D0
:1015200090E09E878D87EDA1FEA12D853E85E20F7F
:10153000F31FFEA3EDA307C1A1E0B0E0BE87AD8716
:10154000F2CFA901E9A5FAA54E1B5F0BED81FE8143
:1015500051834083AC01461B570BEF81F8855183C3
:10156000408349A55AA5240F351FE985FA853183A3
:101570002083860F971FEB85FC85918380832BA5A5
:101580003CA549895A89240F351F3CA72BA7A60DD6
:10159000B71D860C971CA60CB71CC60CD71C8F85D4
:1015A0009889281739070CF063C0BE83AD836D910D
:1015B0007D911297609FA001619F500D709F500D0B
:1015C000112498868F82F401208131812E9DC001E3
:1015D0002F9D900D3E9D900D112456FB222420F846
:1015E000312CF10157FD319696FB442440F8512CE3
:1015F000A201990F411D511DE41BF50BFAA7E9A7A4
:10160000209FC001219F900D309F900D11246E9D51
:1016100090016F9D300D7E9D300D112436FB5527B6
:1016200050F959831A82E981FA8137FD31969F0179
:1016300096FBFF27F0F9FB831C826B817C81990F5D
:10164000611D711D620F731FBA86A986F501208185
:101650003181DC86CB86F601808191814D855E8566
:10166000452B09F46ECF359527959595879569CFCC
:10167000AB89BC891196BC8BAB8BED89FE89329608
:10168000FE8BED8B2F89388D2E5F3F4F388F2F8B40
:101690004B8D5C8DA417B507F1F18B899C890D8C5E
:1016A00002C0880F991F0A94E2F7FC01EE0FFF1F9A
:1016B000E258FD4F00811181880F991FFC01E2580B
:1016C000FF4FE080F1802F8D38A1232B19F4F19486
:1016D000E194F1084D855E85452B21F01595079520
:1016E000F594E7948B899C89AF85B8898A179B0705
:1016F0000CF0BECFAD89BE89E98DFA8DAE0FBF1F4C
:101700008F88988C8E0E9F1ECF88D88CAD88BE880F
:101710009CA78BA74ACF8D8D9E8D01979E8F8D8F15
:10172000A989BA89EF85F889AE17BF0774F5898949
:101730009A899C8F8B8FAF8DB8A1AB2B09F0CBCE44
:1017400031E03D871E864B8D5C8D440F551F5A8BB3
:10175000498B8B8D9C8D0097F1F2ECF23A01660C6F
:10176000771C5A8F498FABA1BCA1B88FAF8BE9A171
:10177000FAA1FE8BED8B1B8A1C8A8FCF2FEF3FEFD8
:101780003EA32DA302C01EA21DA28DA19EA1AC96B8
:10179000E2E10C947B0D0E94D20B6894B1110C9481
:1017A000610C08950E94460C88F09F5798F0B92F5D
:1017B0009927B751B0F0E1F0660F771F881F991F86
:1017C0001AF0BA95C9F714C0B13091F00E94600CBC
:1017D000B1E008950C94600C672F782F8827B85FCC
:1017E00039F0B93FCCF3869577956795B395D9F7DE
:1017F0003EF490958095709561957F4F8F4F9F4FE8
:101800000895E89409C097FB3EF4909580957095F3
:1018100061957F4F8F4F9F4F9923A9F0F92F96E93C
:10182000BB279395F695879577956795B795F111B1
:10183000F8CFFAF4BB0F11F460FF1BC06F5F7F4F4E
:101840008F4F9F4F16C0882311F096E911C0772360
:1018500021F09EE8872F762F05C0662371F096E869
:10186000862F70E060E02AF09A95660F771F881F38
:10187000DAF7880F9695879597F9089557FD905850
:10188000440F551F59F05F3F71F04795880F97FB44
:10189000991F61F09F3F79F08795089512161306FE
:1018A0001406551FF2CF4695F1DF08C0161617062D
:1018B0001806991FF1CF8695710561050894089562
:1018C000E894BB2766277727CB0197F908950E94F4
:1018D0007A0C0C94EB0C0E94DD0C38F00E94E40CA6
:1018E00020F0952311F00C94D40C0C94DA0C1124F4
:1018F0000C94610C0E943E0C70F3959FC1F3950F00
:1019000050E0551F629FF001729FBB27F00DB11D83
:10191000639FAA27F00DB11DAA1F649F6627B00D13
:10192000A11D661F829F2227B00DA11D621F739FFC
:10193000B00DA11D621F839FA00D611D221F749F0A
:101940003327A00D611D231F849F600D211D822F51
:10195000762F6A2F11249F5750409AF0F1F0882378
:101960004AF0EE0FFF1FBB1F661F771F881F9150A5
:101970005040A9F79E3F510580F00C94D40C0C9474
:10198000610C5F3FE4F3983ED4F3869577956795B5
:10199000B795F795E7959F5FC1F7FE2B880F911DCF
:1019A0009695879597F9089597F99F6780E870E075
:1019B00060E008959FEF80EC089500240A941616C5
:1019C000170618060906089500240A94121613062D
:1019D000140605060895092E0394000C11F48823BB
:1019E00052F0BB0F40F4BF2B11F460FF04C06F5FD7
:1019F0007F4F8F4F9F4F08950E94040D332312F4A1
:101A00008A1B9B0B0C944F0DA29FB001B39FC0018A
:101A1000A39F700D811D1124911DB29F700D811D1A
:101A20001124911D0895DB018F939F930E94540D03
:101A3000BF91AF91A29F800D911DA39F900DB29F6A
:101A4000900D11240895A1E21A2EAA1BBB1BFD01C3
:101A50000DC0AA1FBB1FEE1FFF1FA217B307E4078D
:101A6000F50720F0A21BB30BE40BF50B661F771FE5
:101A7000881F991F1A9469F76095709580959095C5
:101A80009B01AC01BD01CF010895909580957095A3
:101A900061957F4F8F4F9F4F08950E94040DB7FFB0
:101AA0000895821B930B08950E94040DA59F900D2D
:101AB000B49F900DA49F800D911D112408952F9225
:101AC0003F924F925F926F927F928F929F92AF92CE
:101AD000BF92CF92DF92EF92FF920F931F93CF931B
:101AE000DF93CDB7DEB7CA1BDB0B0FB6F894DEBFB2
:101AF0000FBECDBF09942A88398848885F846E84D8
:101B00007D848C849B84AA84B984C884DF80EE8021
:101B1000FD800C811B81AA81B981CE0FD11D0FB62A
:101B2000F894DEBF0FBECDBFED010895283008F058
:101B300027E03327DA01990F311D87FD9160009668
:101B40006105710539F432602E5F3D9330E32A95CB
:101B5000E1F708959F3F30F080387105610509F085
:101B60003C5F3C5F3D93913008F08068911DDF93AE
:101B7000CF931F930F93FF92EF92192F987F969513
:101B8000E92F96959695E90FFF27EA5FF04E992782
:101B90003327EE24FF24A701E7010590089407945A
:101BA00028F4360FE71EF81E491F511D660F771FD8
:101BB000881F991F0694A1F70590079428F4E70E53
:101BC000F81E491F561FC11D770F881F991F661FDA
:101BD0000694A1F70590079428F4F80E491F561FA4
:101BE000C71FD11D880F991F661F771F0694A1F785
:101BF0000590079420F4490F561FC71FD81F990F4F
:101C0000661F771F881F0694A9F784911095177097
:101C100041F0D695C79557954795F794E7941A954F
:101C2000C1F7ECEAFEE16894159015913591659144
:101C3000959105907FE27395E118F10A430B560BDD
:101C4000C90BD009C0F7E10CF11E431F561FC91F75
:101C5000D01D7EF4703311F48A95E6CFE8940150DC
:101C600030F0080F0AF40027021708F4202F2395FC
:101C7000022F7A3328F079E37D932A95E9F710C093
:101C80007D932A9589F606949795679537951795CC
:101C90001794E118F10A430B560BC90BD00998F0C1
:101CA00023957E9173957A3308F070E37C9320132B
:101CB000B8F77E9170617D9330F0839571E37D93E9
:101CC00070E32A95E1F71124EF90FF900F911F9197
:101CD000CF91DF91992787FD90950895FC0105909C
:101CE000615070400110D8F7809590958E0F9F1F1E
:101CF0000895FC016150704001900110D8F7809563
:101D000090958E0F9F1F08950F931F93CF93DF938E
:101D1000182F092FEB018B8181FD09C00FEF1FEFF9
:101D2000812F902FDF91CF911F910F91089582FF06
:101D300014C02E813F818C819D81281739073CF486
:101D4000E881F981CF0101968883998310838E8180
:101D50009F8101968E839F83E3CFE885F985812F4C
:101D60000995892BA1F3DACFA0E0B0E0EAEBFEE021
:101D70000C946F0DAE014B5F5F4FFA016191719151
:101D8000AF0180911807909119070E94DB00E2E0F3
:101D90000C948B0D0F931F93CF93DF93E091180753
:101DA000F09119072381EC0100E010E021FD0EC045
:101DB0000FEF1FEFC801DF91CF911F910F91089591
:101DC00021960995892B11F00FEF1FEF8881609103
:101DD000180770911907DB011896ED91FD9181119B
:101DE000EFCF8AE00995892B29F3E2CFFA01AA27E0
:101DF000283051F1203181F1E8946F936E7F6E5F4E
:101E00007F4F8F4F9F4FAF4FB1E03ED0B4E03CD0FB
:101E1000670F781F891F9A1FA11D680F791F8A1FDE
:101E2000911DA11D6A0F711D811D911DA11D20D045
:101E300009F468943F912AE0269F11243019305DFF
:101E40003193DEF6CF010895462F4770405D4193F0
:101E5000B3E00FD0C9F7F6CF462F4F70405D4A333D
:101E600018F0495D31FD4052419302D0A9F7EACF05
:101E7000B4E0A6959795879577956795BA95C9F734
:101E800000976105710508959B01AC010A2E069427
:101E90005795479537952795BA95C9F7620F731FE0
:101EA000841F951FA01D0895F894FFCF00407A105D
:101EB000F35A00A0724E18090010A5D4E80000E8FB
:101EC0007648170000E40B54020000CA9A3B000059
:101ED00000E1F505000080969800000040420F00E8
:101EE0000000A08601000000102700000000E803A9
:101EF000000000006400000000000A000000000074
:101F00000100000000002C76D888DC674F0823DF32
:101F1000C1DFAE59E1B1B796E5E3E453C63AE65105
:101F2000997696E8E6C28426EB898C9B62ED407C2C
:101F30006FFCEFBC9C9F40F2BAA56FA5F490055AC8
:101F40002AF75C936B6CF9676DC11BFCE0E40D47ED
:101F5000FEF520E6B500D0ED902E03009435770510
:101F60000080841E080000204E0A000000C80C33C8
:101F70003333330F986E12831141EF8D2114893B57
:101F8000E65516CFFEE6DB18D1844B381BF77C1DD7
:101F9000901DA4BBE424203284725E228100C9F12A
:061FA00024ECA1E53D2741
:101FA6000000000300000000A0049B040000F006EF
:101FB600F306F706FA06FF0605070A0710070000EC
:101FC600C90092015B022403ED03B6047E054706B1
:101FD6001007D907A1086A09320AFB0AC30B8B0C42
:101FE600530D1B0EE30EAB0F721039110012C71200
:101FF6008E1355141B15E115A7166D173318F8180F
:10200600BD19821A461B0B1CCF1C931D561E191F89
:10201600DC1F9F2061212322E422A6236724272593
:10202600E725A72667272628E528A329612A1E2B48
:10203600DB2B982C542D102ECC2E862F4130FB30C6
:10204600B4316D322633DE3396344D350336B93628
:102056006F372438D8388C393F3AF23AA43B563C8D
:10206600073DB73D673E163FC53F73402041CD4112
:1020760079422543D0437A442345CC4574461C47D0
:10208600C34769480E49B349574AFA4A9D4B3F4CE4
:10209600E04C804D204EBF4E5D4FFA4F9750335166
:1020A600CE51685201539A533254C9545F55F45570
:1020B60089561D57B0574258D3586359F359815A18
:1020C6000F5B9C5B285CB35C3D5DC65D4F5ED65E78
:1020D6005D5FE25F6760EB606E61F0617162F162A5
:1020E6007063EE636B64E7646265DD655666CE66B3
:1020F6004567BC673168A56819698B69FC696C6AB4
:10210600DB6A4A6BB76B236C8E6CF86C616DC96DBC
:10211600306E956EFA6E5E6FC06F22708270E170DF
:1021260040719D71F9715472AE7206735E73B57328
:102136000A745E74B17403755475A475F3754076AC
:102146008D76D87622776B77B377F9773F78837871
:10215600C678087949798979C779047A417A7C7A87
:10216600B57AEE7A257B5C7B917BC47BF77B297CF9
:10217600597C887CB67CE27C0E7D387D617D897DCC
:10218600B07DD57DF97D1C7E3E7E5E7E7E7E9C7E0C
:10219600B97ED47EEF7E087F207F377F4C7F617FBC
:1021A600747F867F967FA67FB47FC17FCD7FD77FE2
:1021B600E07FE87FEF7FF57FF97FFC7FFE7FFF7F83
:1021C600FE7FFC7FF97FF57FEF7FE87FE07FD77F9B
:1021D600CD7FC17FB47FA67F967F867F747F617F28
:1021E6004C7F377F207F087FEF7ED47EB97E9C7E32
:1021F6007E7E5E7E3E7E1C7EF97DD57DB07D897DB0
:10220600617D387D0E7DE27CB67C887C597C297C9C
:10221600F77BC47B917B5C7B257BEE7AB57A7C7AF7
:10222600417A047AC779897949790879C6788378B1
:102236003F78F977B3776B772277D8768D764076C5
:10224600F375A47554750375B1745E740A74B57329
:102256005E730673AE725472F9719D714071E170CE
:1022660082702270C06F5E6FFA6E956E306EC96DA9
:10227600616DF86C8E6C236CB76B4A6BDB6A6C6AAB
:10228600FC698B691969A5683168BC674567CE66C4
:102296005666DD656265E7646B64EE637063F162E2
:1022A6007162F0616E61EB606760E25F5D5FD65EF2
:1022B6004F5EC65D3D5DB35C285C9C5B0F5B815ADF
:1022C600F3596359D3584258B0571D578956F45598
:1022D6005F55C95432549A5301536852CE51335103
:1022E6009750FA4F5D4FBF4E204E804DE04C3F4C0D
:1022F6009D4BFA4A574AB3490E496948C3471C479A
:102306007446CC4523457A44D04325437942CD4192
:1023160020417340C53F163F673EB73D073D563CDB
:10232600A43BF23A3F3A8C39D83824386F37B9365D
:1023360003364D359634DE3326336D32B431FB30F9
:102346004130862FCC2E102E542D982CDB2B1E2B95
:10235600612AA329E52826286727A726E725272512
:102366006724A623E422232261219F20DC1F191F54
:10237600561E931DCF1C0B1C461B821ABD19F8183E
:1023860033186D17A716E1151B1555148E13C712B2
:10239600001239117210AB0FE30E1B0E530D8B0C8E
:1023A600C30BFB0A320A6A09A108D90710074706B8
:1023B6007E05B604ED0324035B029201C90000000A
:1023C60037FF6EFEA5FDDCFC13FC4AFB82FAB9F969
:1023D600F0F827F85FF796F6CEF505F53DF475F3B8
:1023E600ADF2E5F11DF155F08EEFC7EE00EE39EDD9
:1023F60072ECABEBE5EA1FEA59E993E8CDE708E7AB
:1024060043E67EE5BAE4F5E331E36DE2AAE1E7E00F
:1024160024E061DF9FDEDDDD1CDD5ADC99DBD9DAE5
:1024260019DA59D999D8DAD71BD75DD69FD5E2D410
:1024360025D468D3ACD2F0D134D17AD0BFCF05CF72
:102446004CCE93CDDACC22CC6ACBB3CAFDC947C9F0
:1024560091C8DCC728C774C6C1C50EC55CC4AAC36B
:10246600F9C249C299C1EAC03BC08DBFE0BE33BEC6
:1024760087BDDBBC30BC86BBDDBA34BA8CB9E4B8E8
:102486003DB897B7F2B64DB6A9B506B563B4C1B3B4
:1024960020B380B2E0B141B1A3B006B069AFCDAE12
:1024A60032AE98ADFFAC66ACCEAB37ABA1AA0CAAE8
:1024B60077A9E3A850A8BEA72DA79DA60DA67FA520
:1024C600F1A464A4D8A34DA3C3A23AA2B1A12AA1A0
:1024D600A3A01EA0999F159F929E109E8F9D0F9D53
:1024E600909C129C959B199B9E9A239AAA99329925
:1024F600BB984498CF975B97E79675960496949504
:102506002595B6944994DD93729308939F923792DA
:10251600D0916B910691A2904090DE8F7E8F1F8F97
:10252600C08E638E078EAC8D528DFA8CA28C4B8C2E
:10253600F68BA28B4F8BFD8AAC8A5C8A0D8AC0898A
:1025460073892889DE8895884D880788C1877D87A5
:102556003A87F886B78677863986FC85BF8584856F
:102566004B851285DB84A4846F843C840984D783DD
:10257600A78378834A831E83F282C8829F827782EA
:1025860050822B820782E481C281A281828164818A
:1025960047812C811181F880E080C980B4809F80BA
:1025A6008C807A806A805A804C803F803380298074
:1025B6002080188011800B80078004800280546F71
:1025C60074616C2053616D706C65733A2025750AD1
:1025D6000061667465722072656164696E67206465
:1025E60061746120006166746572206669785F6651
:1025F60066740A20006E5F6672616D65733A202507
:10260600750A00666561743A2025752025752025B2
:10261600752025752025752025752025752025759D
:102626000A0050726F63657373696E672E2E2E00F3
:102636006F6E006F666600757000646F776E00726D
:1026460069676874006C65667400737461727400FF
:0626560073746F700000B8
:00000001FF
