:100000000C945E000C9401040C947B000C947B0017
:100010000C947B000C947B000C947B000C947B0074
:100020000C947B000C947B000C948D060C947B004C
:100030000C947B000C947B000C947B000C947B0054
:100040000C947B000C947B000C947B000C947B0044
:100050000C947B006E616E00696E6600A4009C00CB
:1000600094008C007C00840074006C00B22E6E3E04
:10007000CDCC4C3CD7A3703E865A533C6666263E98
:10008000075F983C6519823EDAAC7A3CD3DEE03DEE
:100090009EEFA73CE4141D3EB003673C3FC65C3EA8
:1000A0007446943C713D0A3E70CE883C5A43523DA2
:1000B00025662C205354453D25660A0011241FBE99
:1000C000CFE5D8E0DEBFCDBF10E0A0E6B0E0E0E5D0
:1000D000FAE102C005900D92A23EB107D9F721E0E6
:1000E000A2EEB0E001C01D92A333B207E1F70E9477
:1000F000C7040C94A10C0C940000AFE0B0E0E3E85E
:10010000F0E00C94B50A7C013B015A01FC01168217
:100110001782838181FF51C39AE0292EF701238141
:10012000F30123FD859123FF81913F01811509F49E
:1001300042C0853239F423FD959123FF91913F010F
:10014000953239F4B70190E00E94DA0B650156014F
:10015000E5CF30E010E0812C912CF0E28F1608F012
:100160003CC09B3279F160F4903271F1933291F19D
:100170009E3209F045C086FC1EC0689486F806C011
:100180009D3229F1903359F5689480F8F30123FDED
:10019000959123FF91913F019111DFCF082D097FA8
:1001A000903709F481C208F077C2983509F47FC20C
:1001B0009F3609F483C2F701868197812F96E2E189
:1001C0000C94D10A689481F8689482F8DFCF68941F
:1001D00083F8DCCF689484F8D9CF87FC1BC080ED0E
:1001E000890F8A3028F686FE05C0129D800D1124E5
:1001F000182FCCCF929C800D1124982E8F2AC6CF19
:100200009C3619F4689487F8C1CF9C3409F198366C
:1002100009F4BCCF3115F1F0892F8F7D85548330DF
:1002200008F095C1650128E0C20ED11C8FE38983D7
:1002300001E010E05E013FEFA31AB30AE89487F8EB
:1002400083FC04C00915110508F4E8C1592CFEC14E
:1002500031E09CCF8BEB890F833090F4689484F865
:10026000905E86FE16E04FE38422953689F468940A
:1002700086F8212F183010F027E017E0412C14C029
:100280008BE9890F833008F062C1E89484F8E9CFE4
:10029000963699F5689487F8812F1C3308F08BE324
:1002A00044244394480E27E0F501619171918191B6
:1002B00091916F01042DAE014F5F5F4F0E94EC0AD8
:1002C0005C013980832D89700DE2813029F082FA3A
:1002D000002705F981FC0BE2F32DFC705F2EF11570
:1002E00041F133FA332433F801116AC224E0512C6E
:1002F000921608F47CC283E068C220E0111509F46C
:10030000BDCF1150B6CF81108052B70190E00E944E
:10031000DA0B0F5F1F4FF80184918111F4CF511454
:1003200009F415CFB70180E290E00E94DA0B5A94ED
:10033000F6CF87FE2FC0842D8A0D34FE04C09A812B
:10034000913309F4815044244394181634F4482E10
:10035000F9E08F1710F088E0482EC501B7FE02C003
:1003600080E090E0019601110196111531F0212FE6
:1003700030E02F5F3F4F820F931F8915910514F4D2
:10038000592C581A882D8970A1F551102BC00115D0
:10039000C9F131C086FC23C0E12FF0E01A151B041F
:1003A0003CF02CEFA2162FEFB20614F0689487F8F9
:1003B000CE010396E80FF91F01C01150111519F075
:1003C00082918033D1F387FE0AC044244394410EC6
:1003D000A116B10414F41A19C0CF10E0BECF85E005
:1003E00090E0C1CFB70180E290E00E94DA0B5A940E
:1003F000CCCF011529F0B701802F90E00E94DA0BD5
:1004000083FC02C051103FC087FE56C04501B7FEB5
:1004100002C0812C912CCE0101968A0D9B1DFC01FE
:10042000E819F909EC87FD879501241931092E8710
:100430003F87012F10E0119501951109A814B90407
:100440004CF18E859F858815990524F5EC85FD85F1
:100450008181F1E08F1A910880169106ECF02C85CD
:100460003D852F5F3F4F2C873D87B70190E00E946D
:10047000DA0B3FEF8316980409F7B7018EE290E09C
:100480000E94DA0BDBCFB70180E390E00E94DA0B29
:100490005A94B8CF80E3DDCFA814B90431F49A811F
:1004A000953318F039F434FE05C0B70190E00E948E
:1004B000DA0B35CF81E3F9CF8A81813311F0E894EB
:1004C00034F8B70190E00E94DA0B111124C085E4E2
:1004D00090E084FC02C085E690E0B7010E94DA0B50
:1004E000A114B1041CF061F534FE2AC0B194A194AA
:1004F000B1088DE2B70190E00E94DA0B80E39AE048
:10050000A916B104FCF4B70190E00E94DA0BB70120
:10051000C501C096CCCFB7018EE290E00E94DA0B05
:100520001E5F02E0802F0F5FFE013196E80FF11D84
:100530008081B70190E00E94DA0B0113F3CFC7CF9F
:100540008BE2D8CF8F5F4AE0A41AB108D8CF933698
:10055000B9F1933709F442C0933509F44EC094368B
:1005600019F0993609F07EC0F50187FE73C06191DC
:100570007191819191916F01082D0F7697FF03C0C2
:100580000E94A70A00682AE030E05E01FFEFAF1A80
:10059000BF0AA5010E94430CB82EBA1806FF98C0E6
:1005A000802F8E7FB11608F092C004FFE4C002FDD8
:1005B000D8C00E7E512E802F867809F494C0D6C004
:1005C0006501E2E0CE0ED11CF5018081898301E056
:1005D00010E05E01FFEFAF1ABF0A30CEF501A19027
:1005E000B1906F01612F70E086FC02C06FEF7FEF6A
:1005F000C5010E94CF0B8C0121CEF501A190B190D5
:100600006F01612F70E086FC02C06FEF7FEFC501C4
:100610000E94C40B8C01689487F812CEB70180E267
:1006200090E00E94DA0B9A940DCEF50187FC85913B
:1006300087FE81915F01B70190E00E94DA0B81E0B3
:10064000511001C080E0581A01501109011511051F
:1006500061F765CE619171916F01872F880F880BCB
:10066000982F8ACF953709F099CD082D0F7E2AE073
:1006700030E0F50107FF25C0619171918191919161
:100680006F015E01FFEFAF1ABF0AA5010E94430C84
:10069000B82EBA180F7782CF983709F08CCD84FC2A
:1006A00004C020E130E0E5CF00610460FACF84FEB1
:1006B00002C0082D066020E132E0DBCF28E030E008
:1006C000D8CF619171916F0180E090E0DACF082F6F
:1006D0005B2C04FF70CFFE01EB0DF11D8081803398
:1006E00009F042C0097E03FD0EC000FF50C01B2D63
:1006F000591418F4190D1519592C892D85199514AB
:1007000008F480E0580E591408F043C09518592C8D
:1007100004FF41C0B70180E390E00E94DA0B02FFC2
:1007200009C088E590E001FD02C088E790E0B701CC
:100730000E94DA0BB116D0F18E010F5F1F4FBA94F1
:100740009E012E5F3F4F2B0D311D5901F501829106
:100750005F01B70190E00E94DA0BA016B106B1F775
:10076000DECD512E082FB7CF02FD02C05394BBCF70
:1007700053945394B8CF512E082F1DCFB70180E268
:1007800090E00E94DA0BA394A914C0F3B6CFA52C75
:10079000FBCF512CBDCF802F867861F280E201FD26
:1007A0008BE207FD8DE2B70190E0C2CFB70180E395
:1007B00090E00E94DA0B1150BDCF8FEF9FEFFECC7F
:1007C000F5E0512C9F1670F084E0592C581A83FCE8
:1007D00007C0B70180E290E00E94DA0B5A94C9F793
:1007E000011529F0B701802F90E00E94DA0B04E593
:1007F00010E0311002C008E510E084FA882484F883
:100800008ACD8F938FB78F9382B3805882BB81E05C
:100810008093E8008F918FBF8F911895A7E0B0E08B
:10082000E4E1F4E00C94B50AC82ED92E0F2EFCE5B5
:10083000EF2EF0E0FF2EF02D1F821E821C821D8203
:100840006894332435F88CEB89839EEB9A83ECE42F
:10085000EB835601F4E0AF0EB11C0DC0EE81FF81B9
:100860003196FF83EE83F2E0EF0EF11C8E819F81C3
:10087000089709F477C0F70105911591F801549094
:10088000F601649170E080E090E00E940B09662E12
:10089000772E882E992E652D70E080E090E00E94E2
:1008A0000B09262F372F482F592F662D772D882D8E
:1008B000992D0E942708262F372F482F592F0E9445
:1008C000CB0920E030E0A9010E942808962E872E4F
:1008D000582E492EF80134962490F501649170E069
:1008E00080E090E00E940B09662E772E082F192FCA
:1008F000622D70E080E090E00E940B09262F372FD8
:10090000482F592F662D772D802F912F0E94270871
:10091000262F372F482F592F0E94CB09292D382DEC
:10092000452D542D0E9428080E943E0A862E972E9F
:10093000082F192F69819A818B81232D362F492FFA
:10094000582F682D802F912F0E94940881150CF04C
:1009500085CFFE81FC838F818D83382C99820A8319
:100960001B837CCF8C819D812796E2E10C94D10A78
:100970008A98929A8BB780648BBF85B7826085BF57
:1009800085B78E7F85BF8AB780648ABF08958FEF51
:1009900087BB18BA0E9471060E94B80478940E941E
:1009A00015062FEF3FEA41E0215030404040E1F78B
:1009B00000C000000E9465064EE750E060E080E065
:1009C0000E94420606E910E0EE24E394F12C0BC0ED
:1009D0009FEF98BB2FEF3FEB41E22150304040406A
:1009E000E1F700C000000E941B078FEF9FEA21E0A3
:1009F000815090402040E1F700C000008091E80065
:100A00008115E1F30E94650649E850E060E080E06E
:100A10000E9442063FEF4FE385E631504040804060
:100A2000E1F700C000000E94850689EE90E00E9478
:100A30003307E9EEF0E087818F9386818F9385817C
:100A40008F9384818F9383818F9382818F93818110
:100A50008F9380818F931F930F930E940A0C89EECE
:100A600090E00E940E04C82FD92F1092E8009798AA
:100A70002DB73EB7265F3F4F0FB6F8943EBF0FBE6F
:100A80002DBFCA30D10509F4AECF0E946506FE0124
:100A9000EE0FFF1FE05AFF4F4081518160E080E080
:100AA0000E9442063FEF4FE583E0315040408040D6
:100AB000E1F700C00000C830D10508F06EC0FE01AB
:100AC000E05EF24F0C94AF0A18BA8FEF9FEB21E271
:100AD000815090402040E1F700C0000084CFC09AD0
:100AE00088B3817F88BB3FEF4FEB81E231504040BC
:100AF0008040E1F700C0000076CFC29A88B3847FBF
:100B000088BB9FEF2FEB31E2915020403040E1F75E
:100B100000C0000068CFC19A88B3827F88BB4FEFC6
:100B20008FEB91E2415080409040E1F700C000001F
:100B30005ACFC39A88B3887F88BB2FEF3FEB41E23F
:100B4000215030404040E1F700C000004CCF80E031
:100B500090E028B3A701082E02C0440F551F0A9445
:100B6000E2F7242B28BB2FEF3FEB41E2215030402E
:100B70004040E1F700C0000001968430910549F73C
:100B800018BA8FEF9FEB21E2815090402040E1F7AF
:100B900000C0000028CF18BA26CF18BA24CF95B3CA
:100BA0009F70282F207F922B95BBAA98A89A94E03B
:100BB0009A95F1F7A898E8E2F2E03197F1F700C0D2
:100BC000000095B38295807F9F70892B85BBA89A82
:100BD000F4E0FA95F1F7A89889E995E10197F1F722
:100BE00000C0089595B39F70282F207F922B95BB4E
:100BF000AA9AA89A94E09A95F1F7A898E8E2F2E008
:100C00003197F1F700C0000095B38295807F9F7007
:100C1000892B85BBA89AF4E0FA95F1F7A89889E9A1
:100C200095E10197F1F700C008958FEF84BB8FEF36
:100C300097ED0197F1F700C0000082E00E94CF0518
:100C400088E20E94CF058CE00E94CF0586E00E94DA
:100C5000CF0581E00E94CF0589E995E10197F1F781
:100C600000C00895CF93DF93C82FD92F88818115B5
:100C700031F021960E94F20589918111FBCFDF911D
:100C8000CF910895A2E0B0E0E8E4F6E00C94C50A44
:100C900049835A83813080F4603140F089819A81A0
:100CA0000E9432062296E2E00C94E10A6F70862FD1
:100CB00080680E94CF05F2CF89F7603178F76F70B6
:100CC000862F806C0E94CF05E9CF81E00E94CF057E
:100CD00089E995E10197F1F700C080E80E94CF050E
:100CE000089580E687B986B1876886B9369A3699BD
:100CF000FECF08955F9BFECF8CB190E008955D9B81
:100D0000FECF8CB980E090E008958BE083BF85E151
:100D10008CBF89B7826089BF08958F939F93369A5D
:100D20003499FECF84B195B18093320181E08093F4
:100D300031019F918F9118959B01AC01220F331FB8
:100D4000441F551F220F331F441F551F220F331FEF
:100D5000441F551F220F331F441F551F60E070ECC6
:100D600088EA90E00E94850A8FEF820F89B92150AE
:100D7000310941095109232F342F452F552720BD13
:100D80008AB188618AB980B5866880BD0895A0E07F
:100D9000B0E0EDECF6E00C94BE0A082F192FC62F38
:100DA000D72F209709F444C0B12C6D017D0180E05C
:100DB00090E0800F911FFC016081062E000C770BE4
:100DC000880B990B0E940D0920E030E040E85BE3BE
:100DD0000E94CB09262F372F482F592F0E94CB096D
:100DE000262F372F482F592F6C2D7D2D8E2D9F2D7F
:100DF0000E942808C62ED72EE82EF92EB3948B2DEC
:100E000090E0BC161D06A8F2BE0180E090E00E94B2
:100E10000B09262F372F482F592F6C2D7D2D8E2D06
:100E20009F2D0E949908CDB7DEB7E9E00C94DA0A4D
:100E30006D017D01E9CF60E875E280E090E00E94FD
:100E40009C06E2EEF0E080E790E09383828391835A
:100E500080832FEF8FEA91E0215080409040E1F7AE
:100E600000C000000895A5E0B0E0E9E3F7E00C94CD
:100E7000B50A89839A83412C312C212C1B823101A4
:100E8000512C0F2EF2EDCF2EF0E0DF2EF02D0F2E95
:100E9000F0E3AF2EF1E0BF2EF02D410189C0F1E368
:100EA000EF16F1E0FF06F1F0809131018115E1F3D9
:100EB0001092310180913201F70181937F019110ED
:100EC000EECF80913201282F082E000C330B3F9378
:100ED0008F93DF92CF920E940A0C0F900F900F9089
:100EE0000F90DDCFE1EFF0E080E090E02191820F04
:100EF000911D27FD9A9521E0E133F207B9F700240F
:100F0000880F991F001C880F991F001C892F902D96
:100F1000982FE1EFF0E08191DF01891B8E9381E052
:100F2000E133F807C1F760E070E0CB010CC020812D
:100F3000211534F020E030E040E85FE30E9428080B
:100F40000A151B0549F0F80121918F0121157CF349
:100F500020812115ACF7EECF20E030E040E85CE3E3
:100F60000E94CB09262F372F482F592F682D772D18
:100F7000862D952D0E942808862E772E682E592EB4
:100F800060E470E081EF90E00E94C706262F372FC3
:100F9000482F592F642D732D822D9B810E94280884
:100FA000462E372E282E9B839394F8E09F1621F02F
:100FB00001EF10E0780178CF20E030E040E05EE320
:100FC000682D772D862D952D0E94CB096C837D830E
:100FD000182F092F472F862F942FA12FB02FE9818B
:100FE000FA8180839183A283B38320E030E040E0E4
:100FF0005EE3642D732D822D9B810E94CB09262FE9
:10100000372F482F592F782F822F932FA72FB52FA7
:10101000E981FA8184839583A683B7835F934F9395
:101020003F932F930F931F93FD81FF932C812F9359
:101030008CEA90E09F938F930E94200C0FB6F89457
:10104000DEBF0FBECDBF2596E2E10C94D10A505809
:10105000BB27AA270E943F080C9491090E9483098C
:1010600038F00E948A0920F039F49F3F19F426F4E1
:101070000C9480090EF4E095E7FB0C946C09E92FC1
:101080000E94A20958F3BA176207730784079507ED
:1010900020F079F4A6F50C94C4090EF4E0950B2E1B
:1010A000BA2FA02D0B01B90190010C01CA01A001BA
:1010B0001124FF27591B99F0593F50F4503E68F115
:1010C0001A16F040A22F232F342F4427585FF3CF56
:1010D000469537952795A795F0405395C9F77EF427
:1010E0001F16BA0B620B730B840BBAF09150A1F070
:1010F000FF0FBB1F661F771F881FC2F70EC0BA0FF6
:10110000621F731F841F48F4879577956795B7957D
:10111000F7959E3F08F0B0CF9395880F08F0992778
:10112000EE0F9795879508950E94480908F481E08D
:1011300008950E94AD080C9491090E948A0958F004
:101140000E94830940F029F45F3F29F00C946C0958
:1011500051110C94C5090C9480090E94A20968F3EE
:101160009923B1F3552391F3951B550BBB27AA2760
:1011700062177307840738F09F5F5F4F220F331F9A
:10118000441FAA1FA9F335D00E2E3AF0E0E832D062
:1011900091505040E695001CCAF72BD0FE2F29D065
:1011A000660F771F881FBB1F261737074807AB0737
:1011B000B0E809F0BB0B802DBF01FF2793585F4FAC
:1011C0003AF09E3F510578F00C946C090C94C509D7
:1011D0005F3FE4F3983ED4F3869577956795B7958E
:1011E000F7959F5FC9F7880F911D9695879597F999
:1011F0000895E1E0660F771F881FBB1F6217730712
:101200008407BA0720F0621B730B840BBA0BEE1F26
:1012100088F7E0950895E89409C097FB3EF490950F
:101220008095709561957F4F8F4F9F4F9923A9F0BF
:10123000F92F96E9BB279395F6958795779567954E
:10124000B795F111F8CFFAF4BB0F11F460FF1BC092
:101250006F5F7F4F8F4F9F4F16C0882311F096E925
:1012600011C0772321F09EE8872F762F05C06623D3
:1012700071F096E8862F70E060E02AF09A95660F8C
:10128000771F881FDAF7880F9695879597F9089545
:10129000990F0008550FAA0BE0E8FEEF1616170687
:1012A000E807F907C0F012161306E407F50798F0EF
:1012B000621B730B840B950B39F40A2661F0232B08
:1012C000242B252B21F408950A2609F4A140A69584
:1012D0008FEF811D811D089597F99F6780E870E069
:1012E00060E008959F3F31F0915020F48795779505
:1012F0006795B795880F911D9695879597F90895ED
:101300009FEF80EC089500240A941616170618061D
:101310000906089500240A941216130614060506F9
:101320000895092E0394000C11F4882352F0BB0F8A
:1013300040F4BF2B11F460FF04C06F5F7F4F8F4FED
:101340009F4F089557FD9058440F551F59F05F3F28
:1013500071F04795880F97FB991F61F09F3F79F0D7
:1013600087950895121613061406551FF2CF469559
:10137000F1DF08C0161617061806991FF1CF8695DB
:101380007105610508940895E894BB2766277727BF
:10139000CB0197F908950E94DE090C9491090E94EF
:1013A000830938F00E948A0920F0952311F00C94EB
:1013B0006C090C94800911240C94C5090E94A2099F
:1013C00070F3959FC1F3950F50E0551F629FF00198
:1013D000729FBB27F00DB11D639FAA27F00DB11DB1
:1013E000AA1F649F6627B00DA11D661F829F22273A
:1013F000B00DA11D621F739FB00DA11D621F839FC1
:10140000A00D611D221F749F3327A00D611D231F96
:10141000849F600D211D822F762F6A2F11249F57E4
:1014200050409AF0F1F088234AF0EE0FFF1FBB1FE7
:10143000661F771F881F91505040A9F79E3F5105A6
:1014400080F00C946C090C94C5095F3FE4F3983E5E
:10145000D4F3869577956795B795F795E7959F5F50
:10146000C1F7FE2B880F911D9695879597F90895E2
:1014700019F416F40C9480090C9472090E94AA09BC
:10148000B8F39923C9F3B6F39F57550B87FF0E9412
:101490007E0A0024A0E640EA900180585695979570
:1014A00028F4805C660F771F881F20F02617370707
:1014B000480730F4621B730B840B202931294A2B17
:1014C000A69517940794202531254A2758F7660FCB
:1014D000771F881F20F026173707480730F4620B64
:1014E000730B840B200D311D411DA09581F7B901AF
:1014F000842F9158880F9695879508959150504064
:10150000660F771F881FD2F70895A1E21A2EAA1B33
:10151000BB1BFD010DC0AA1FBB1FEE1FFF1FA217A3
:10152000B307E407F50720F0A21BB30BE40BF50BA0
:10153000661F771F881F991F1A9469F76095709529
:10154000809590959B01AC01BD01CF0108959095C8
:101550008095709561957F4F8F4F9F4F0895EE0F47
:10156000FF1F0590F491E02D09942F923F924F9226
:101570005F926F927F928F929F92AF92BF92CF9223
:10158000DF92EF92FF920F931F93CF93DF93CDB72C
:10159000DEB7CA1BDB0B0FB6F894DEBF0FBECDBFA4
:1015A00009942A88398848885F846E847D848C8475
:1015B0009B84AA84B984C884DF80EE80FD800C817E
:1015C0001B81AA81B981CE0FD11D0FB6F894DEBF61
:1015D0000FBECDBFED010895283008F027E0332776
:1015E000DA01990F311D87FD916000966105710543
:1015F00039F432602E5F3D9330E32A95E1F7089588
:101600009F3F30F080387105610509F03C5F3C5F19
:101610003D93913008F08068911DDF93CF931F9325
:101620000F93FF92EF92192F987F9695E92F969539
:101630009695E90FFF27E056F64E99273327EE24BB
:10164000FF24A701E70105900894079428F4360FBA
:10165000E71EF81E491F511D660F771F881F991F2F
:101660000694A1F70590079428F4E70EF81E491F89
:10167000561FC11D770F881F991F661F0694A1F77B
:101680000590079428F4F80E491F561FC71FD11D57
:10169000880F991F661F771F0694A1F7059007947E
:1016A00020F4490F561FC71FD81F990F661F771FB9
:1016B000881F0694A9F784911095177041F0D6956C
:1016C000C79557954795F794E7941A95C1F7E6E4BF
:1016D000F9E1689415901591359165919591059072
:1016E0007FE27395E118F10A430B560BC90BD00941
:1016F000C0F7E10CF11E431F561FC91FD01D7EF419
:10170000703311F48A95E6CFE894015030F0080F59
:101710000AF40027021708F4202F2395022F7A33AA
:1017200028F079E37D932A95E9F710C07D932A95F7
:1017300089F6069497956795379517951794E1184C
:10174000F10A430B560BC90BD00998F023957E91F3
:1017500073957A3308F070E37C932013B8F77E9189
:1017600070617D9330F0839571E37D9370E32A95EA
:10177000E1F71124EF90FF900F911F91CF91DF912E
:10178000992787FD90950895FC0105906150704060
:101790000110D8F7809590958E0F9F1F0895FC013A
:1017A0006150704001900110D8F7809590958E0F90
:1017B0009F1F08950F931F93CF93DF93182F092F27
:1017C000EB018B8181FD09C00FEF1FEF812F902F5F
:1017D000DF91CF911F910F91089582FF14C02E8148
:1017E0003F818C819D81281739073CF4E881F9817C
:1017F000CF0101968883998310838E819F81019602
:101800008E839F83E3CFE885F985812F0995892B06
:10181000A1F3DACFA0E0B0E0E0E1FCE00C94C50A6F
:10182000AE014B5F5F4FFA0161917191AF01809101
:10183000E4009091E5000E947D00E2E00C94E10A52
:10184000A0E0B0E0E6E2FCE00C94C50AAE014B5F1C
:101850005F4FFA0161917191AF018091E400909125
:10186000E500FC012381286023830E947D009C0108
:10187000E091E400F091E5009381977F9383C901A3
:10188000E2E00C94E10AFA01AA27283051F1203154
:1018900081F1E8946F936E7F6E5F7F4F8F4F9F4F04
:1018A000AF4FB1E03ED0B4E03CD0670F781F891F46
:1018B0009A1FA11D680F791F8A1F911DA11D6A0F14
:1018C000711D811D911DA11D20D009F468943F91C7
:1018D0002AE0269F11243019305D3193DEF6CF01C6
:1018E0000895462F4770405D4193B3E00FD0C9F78C
:1018F000F6CF462F4F70405D4A3318F0495D31FDF9
:101900004052419302D0A9F7EACFB4E0A69597954B
:10191000879577956795BA95C9F700976105710521
:1019200008959B01AC010A2E06945795479537956B
:101930002795BA95C9F7620F731F841F951FA01DC5
:101940000895F894FFCF00407A10F35A00A0724E29
:1019500018090010A5D4E80000E87648170000E454
:101960000B54020000CA9A3B000000E1F50500009C
:1019700080969800000040420F000000A086010001
:101980000000102700000000E803000000006400D1
:10199000000000000A00000000000100000000003C
:1019A0002C76D888DC674F0823DFC1DFAE59E1B160
:1019B000B796E5E3E453C63AE651997696E8E6C26F
:1019C0008426EB898C9B62ED407C6FFCEFBC9C9F76
:1019D00040F2BAA56FA5F490055A2AF75C936B6C98
:1019E000F9676DC11BFCE0E40D47FEF520E6B5008C
:1019F000D0ED902E0300943577050080841E0800FA
:101A000000204E0A000000C80C333333330F986EA9
:101A100012831141EF8D2114893BE65516CFFEE666
:101A2000DB18D1844B381BF77C1D901DA4BBE4242C
:101A3000203284725E228100C9F124ECA1E53D27A9
:101A4000E80464056F057D058B059905A705CB05A1
:101A5000AD00B000B400B700BC00C200C700CD00AC
:101A600000000003000000007F067A0600005761B6
:101A70006974696E672E2E2E004C697374656E69E9
:101A80006E672E2E2E005369676E616C2076616C36
:101A90007565733A2025662C2025660A006F6E0056
:101AA0006F666600757000646F776E0072696768B4
:101AB00074006C6566740073746172740073746F83
:101AC00070004144432076616C75653A2025640AB4
:021AD000000014
:00000001FF
