:100000000C942A000C949F000C9447000C94470019
:100010000C9447000C9447000C9447000C94B600D5
:100020000C9447000C9447000C9447000C94470034
:100030000C9447000C9447000C9447000C94470024
:100040000C9447000C9447000C9447000C94470014
:100050000C94470011241FBECFE5D8E0DEBFCDBF12
:1000600010E0A0E6B0E0EAEAF2E002C005900D92EE
:10007000AE36B107D9F720E0AEE6B0E001C01D9280
:10008000A237B207E1F70E94E4000C9453010C94EC
:1000900000009B01AC01220F331F441F551F220F8C
:1000A000331F441F551F220F331F441F551F220F9C
:1000B000331F441F551F60E070EC88EA90E00E94F7
:1000C00031012150310929B930BD88E08AB986E86B
:1000D00080BD08955D9BFECF8CB90895CF93DF93CB
:1000E000C82FD92F8881811531F021960E946A008E
:1000F00089918111FBCFDF91CF91089580E687B977
:1001000086E886B90895369A3699FECF85B1089566
:100110008EB588608EBD8EB582608EBD8BEA90E014
:100120009BBD8ABD89B7806189BF08958A98929ADC
:1001300085B7826085BF8BB780648BBF08951F929F
:100140001FB61F9211248F939F939091710081E0AD
:10015000911180E08093710088B391E0892788BB7A
:100160009F918F911F901FBE1F9018951F920F9205
:100170000FB60F9211242F933F934F935F936F937A
:100180007F938F939F93AF93BF93EF93FF93809150
:100190007100811589F4FF91EF91BF91AF919F910B
:1001A0008F917F916F915F914F913F912F910F9020
:1001B0000FBE0F901F9018950E94830080936F00D0
:1001C00081E080936E00E7CF60E072EC81E090E028
:1001D0000E9449000E947E000E9488000E949600B2
:1001E000B89AC09A8F9A97987894C1E013C080E625
:1001F00090E00E946E00C09370002FEF8FEA91E0B4
:10020000215080409040E1F700C0000080916E00D6
:10021000811120C080917100811521F080917000C2
:10022000811529F3809171008111F0CF80917000C8
:10023000811561F387E690E00E946E0010927000D5
:100240002FEF8FEA91E0215080409040E1F700C00D
:100250000000DCCF80916F000E946A0010926E0057
:10026000D9CFA1E21A2EAA1BBB1BFD010DC0AA1FEC
:10027000BB1FEE1FFF1FA217B307E407F50720F00F
:10028000A21BB30BE40BF50B661F771F881F991F8A
:100290001A9469F760957095809590959B01AC01D3
:0A02A000BD01CF010895F894FFCFCF
:0E02AA0053544152540A0053544F500A00005E
:00000001FF
